:020000040800F2
:10000000602C0020ED010008CF280008C727000859
:10001000CD280008691600080D49000800000000FE
:10002000000000000000000000000000493D000842
:10003000D116000800000000BD020008713D000854
:10004000070200080702000807020008070200086C
:10005000070200080702000807020008070200085C
:10006000070200080702000807020008070200084C
:10007000070200080702000807020008070200083C
:10008000070200080702000807020008070200082C
:10009000070200080702000807020008070200081C
:1000A000070200080702000807020008070200080C
:1000B000D93E0008E53E00080702000807020008D4
:1000C00007020008070200080702000807020008EC
:1000D00007020008F54800080702000807020008A8
:1000E00007020008070200080702000807020008CC
:1000F00007020008070200080702000807020008BC
:1001000007020008070200080702000807020008AB
:10011000070200080702000807020008070200089B
:10012000070200080702000807020008070200088B
:1001300000F002F800F04AF80AA090E8000C8244AF
:100140008344AAF10107DA4501D100F03FF8AFF28C
:10015000090EBAE80F0013F0010F18BFFB1A43F0A5
:10016000010318471863000038630000103A24BFE9
:1001700078C878C1FAD8520724BF30C830C144BF0C
:1001800004680C607047000000230024002500264E
:10019000103A28BF78C1FBD8520728BF30C148BFEA
:1001A0000B607047662905F0C487642900F0D6808B
:1001B000002070471FB500F045FC0400002000211E
:1001C00005F032F8E0601FBD10B510BD00F05AFD1B
:1001D0001146FFF7EFFF04F08BFF00F078FD03B44A
:1001E000FFF7F2FF03BC04F023FC0000094880473E
:1001F00009480047FEE7FEE7FEE7FEE7FEE7FEE709
:10020000FEE7FEE7FEE7FEE704480549054A064B20
:1002100070470000993E0008310100086026002068
:10022000602C0020602800206028002072B602B4F4
:10023000EFF3118180F31188BFF34F8FBFF36F8FFE
:10024000084602BC62B6704772B680F31188BFF3ED
:100250004F8FBFF36F8F62B6704772B630484FF062
:10026000FF010170002080F309882E48016881F3A6
:10027000088802F043FF2C48012101702B482C49CB
:100280000A7802702B482C490A680260106880F3D3
:100290000988EFF3148040F0020080F31488BFF364
:1002A0006F8FBDE8F04F0FBCBDE8005006BC62B6D2
:1002B000084722484FF080510160704772B640F203
:1002C0004C02C2F20002116881F31188BFF34F8F14
:1002D000BFF36F8F62B6EFF3098020E9F04F154D41
:1002E00029680860744602F009FF104810490A782E
:1002F000027011490A682A6044F0040E1068B0E8E0
:10030000F04F80F3098840F20002C0F2000272B69A
:1003100082F31188BFF34F8FBFF36F8F62B67047C0
:1003200022ED00E04800002057000020540000208B
:1003300055000020700000207800002004ED00E04F
:10034000704700000FB4044910B503AA029800F0EA
:1003500067FB10BC5DF814FB340000202DE9F04170
:100360000646002410687529314616A510D0AFF353
:100370000080002802DA404213A507E031688A07AE
:1003800001D512A502E0490704D511A5012401E019
:10039000AFF3008000210A2206F1240709E0B0FB38
:1003A000F2FCB0FBF2F302FB1C003030785418462C
:1003B000491C0028F3D123462A463046BDE8F041C7
:1003C00000F0C5B8000000002D0000002B00000068
:1003D000200000002DE9F0474FF0000A894604464E
:1003E000C0F820A02046E1688847002876D025285C
:1003F00006D0D4E901219047206A401C2062F1E731
:10040000E168204600258847C4F81CA0064600275E
:10041000C4F818A02A2E09D0304604F002FB38B3E5
:1004200004EB8708303EC8F8186019E059F8041B3F
:10043000204604EB87029161E1688847012F064658
:1004400018D1E069002820DA25F020051DE0D8F851
:10045000180000EB800006EB40003038C8F81800A8
:100460002046E1688847064604F0DBFA0028EED112
:10047000012F0AD02E2E08D12046E16888477F1C24
:100480000646022F45F02005C4DBA069002803DAE8
:10049000404245F00105A061E80701D025F01005B4
:1004A000B6B1A6F14100192802D8203645F40065FE
:1004B0004A463146204625604D46FFF773FE58B147
:1004C000012806D0ED1D25F0070000F1080989E795
:1004D00004E005F1040985E730468AE7206ABDE8B3
:1004E000F0874FF0000200B5134694469646203937
:1004F00022BFA0E80C50A0E80C50B1F12001BFF4DD
:10050000F7AF090728BFA0E80C5048BF0CC05DF842
:1005100004EB890028BF40F8042B08BF704748BF90
:1005200020F8022B11F0804F18BF00F8012B704704
:10053000704770477047704710B500F087FA006841
:1005400010BD10B5044600F081FA046010BD2DE91D
:10055000F0470D4699469246044600F1240801688A
:10056000880604D5E06921F01001216000E0012037
:10057000A84201DD471B00E00027A1697A1902EBC0
:100580000900081AA0612078C00602D42046AFF303
:100590000080002608E0D4E901211AF806009047FF
:1005A000206A401C761C20624E45F4DB2078C00691
:1005B0000AD52046AFF3008006E0D4E901213020BF
:1005C0009047206A401C2062381EA7F10107F4DC26
:1005D00007E0D4E9012118F805009047206A401C83
:1005E0002062281EA5F10105F3DC2046AFF3008050
:1005F0002078000602D50220BDE8F0870120FBE745
:1006000070472DE9FF4F0C461E464FF0FF378BB069
:10061000D2E90001DDF860800A908A46C1F30A55EC
:1006200005B93D46002108464FF00000BAF1000F21
:1006300000F4400005DA00EB80004FF4400101EACD
:1006400050004FEA9059B9F1010F00DDB9460A9800
:1006500050EA4A000ED044F61050A5F2FF3545434B
:100660002F14B8F1000F1ED07542291E1EDDC9F1EE
:1006700000021CE0B8F1010F4FF0000001D0302162
:1006800003E0F24305E02154401CB042FBDB30465E
:100690000022002121540B99C1F80880C1E90020F3
:1006A0000FB0BDE8F08FBD1B6D1CDEE74A4600DAD7
:1006B000694206A800F06CFA06AB93E8070003ABAA
:1006C00083E8070050460A9900F04AFB8DE80700CE
:1006D000A0F500501F3800900398002D0ADD42F26B
:1006E0001F014A460844002303A90390684600F00E
:1006F000B3FD09E0A0F500504A461F38002303A9C6
:100700000390684600F0BDFD8DE807000004000C72
:1007100003D04FF0FF30410800E01046B8F1000F61
:1007200003D00022009215461EE0751E05D400F08D
:1007300091F9303262556D1EF9D5B3460122084356
:1007400002D000227F1C04E02078302801D1002252
:100750007F1E002A099784D01DE0112D07DA00F0D2
:1007600079F9303262556D1C50EA0102F5D1084327
:1007700002D00098C8B10EE00021681E05E0235C9D
:10078000625C63542254401E491C8142F7DBAB4635
:10079000A81B401E0990002004F80B000B98099A32
:1007A000C0F80880C0E9002B7AE711264FF0000856
:1007B00057E72DE9F04F88460446D21D22F0070185
:1007C00091B0D1E90001CDE90A0104F0A0F8024698
:1007D0000B98C00F01D02D2007E02068810701D5BC
:1007E0002B2002E0202101EAC000032A099001D059
:1007F000072A05DB03464146204600F089F90BE154
:100800002078800601D5E06900E00620B8F1650F88
:10081000814606D0B8F1660F18D0B8F1670F70D1D5
:1008200031E00020B9F1110F009001DB112301E04C
:1008300009F101030AAA01A90CA8FFF7E2FEDDE90C
:100840000C70002609F10105834647E001204B4664
:1008500000904FF000470AAA01A90CA8FFF7D1FEAB
:10086000DDE90DB00C995D46002610B909F10100D3
:100870000D18B9EB050003D4C0F1FF3609F10105ED
:10088000A5EB09002BE0B9F1010F01DA4FF00109E6
:100890000020B9F1110F0090484601DD112300E05E
:1008A00003460AAA01A90CA8FFF7ABFEDDE90C700C
:1008B0004D4600268346207800070AD4AB4500DA6F
:1008C0005D4601A8012D04DD411911F8011C3029F4
:1008D00007D04F4502DA17F1040F04DA01208246EF
:1008E0000FE06D1EEEE7002F02DCED1B3E4403E03F
:1008F000781CA84200DD7D1CB81B00F1010A4FF0F6
:1009000000472078000703D4AA4501DB4FF0FF3AE7
:100910000021B7F1004F0DF143088DF8431024D0AA
:1009200002202B23002F01DA7F422D230A21021EF1
:10093000A0F1010000DC5FB197FBF1FC97FBF1F245
:1009400001FB1C7C17460CF1300C08F801CDEEE7DA
:10095000A8F1010003702188090501D5452100E0B7
:100960006521A0F1010800F8011C09980FA9A1EB6D
:100970000807FF1D00B10120411901EBEA70A169D0
:100980003844081A401EA0612078C00602D42046D0
:10099000AFF30080099828B1D4E901219047206A7B
:1009A000401C20622078C00622D52046AFF300808C
:1009B0001EE0002E04DBB34502DD01A8805D00E0EF
:1009C0003020D4E901219047206A401C2062761C27
:1009D000AAF101005FEA000A0AD100F033F8C0680A
:1009E0000168405CD4E901219047206A401C2062E4
:1009F000281EA5F10105DCDC07E0D4E9012118F887
:100A0000010B9047206A401C2062381EA7F10107A5
:100A1000F3DC2046AFF30080032011B041E6000074
:100A2000074B70B50D467B4400F05FF8044628463E
:100A300000F020F910B14FF0FF3070BD204670BDBE
:100A400047420000004870471C26002000487047BD
:100A5000FC25002030B5B0F10A024FEA900E71F18A
:100A600000034EEA817EB0EB0E0061EB91014FEA8C
:100A7000101E4EEA017E10EB0E0041EB11114FEA01
:100A8000102E4EEA016E10EB0E0041EB11214FEAE1
:100A9000104E4EEA014E10EB0E0041EB1141401892
:100AA00041F100014FEAD00040EA41704FEAD10124
:100AB00010EB80054FEA810444EA907444EB010492
:100AC0006D1944EB0404521BA3414FF0000348BFCF
:100AD0000A3200D530BD401C41F1000130BD00009C
:100AE00001694A1C02610878704700B58FB0CDE9F2
:100AF00001310021059105497944CDE903101146E2
:100B00006846FFF767FC0FB000BD0000E5FFFFFF80
:100B10002DE9F0411F46044603260168072A01F427
:100B2000006004DB08B116A505E016A503E008B1D6
:100B300015A500E015A521F010002060A069C01ED9
:100B4000A0610FB1401EA0612046AFF300804FB1FD
:100B5000D4E9012138469047206A401C2062C01C1D
:100B6000206206E0206AFAE7D4E9012115F8010BBA
:100B70009047761EF8D22046AFF30080BDE8F081A2
:100B80004E414E006E616E00494E4600696E660031
:100B90002DE9F047814616468AB0354878440DC89D
:100BA0008DE80D0032487844801C03AC0DC884E801
:100BB0000D0041F69B300844372190FBF1F290FB89
:100BC000F1F5A5F1800501FB12041B3C02D564423E
:100BD000012000E00020DFF898A080460027FA44BA
:100BE000AAF1BE0A0EE0E0070AD03246684607EBDB
:100BF000470101230AEB810100F043FB8DE8070068
:100C000064107F1C002CEED1194F7F44AE3F19E0D9
:100C1000E80715D007EB04100DF1180A90E80E0054
:100C20008AE80E00C068F04201D198190890324657
:100C3000012306A903A800F024FB03AB83E8070007
:100C40006D10641C002DE3D14FF00103324669465C
:100C5000B8F1000F03A802D000F0FEFA01E000F0A6
:100C600010FBC9E90001C9F808200AB0BDE8F08707
:100C70007C580000007B00F08000704700487047FF
:100C8000FC2500207546FFF7F9FFAE4605006946D2
:100C9000534620F00700854618B020B5FFF7B4FA98
:100CA000BDE820404FF000064FF000074FF000086D
:100CB0004FF0000B21F00701AC46ACE8C009ACE8EE
:100CC000C009ACE8C009ACE8C0098D46704710B552
:100CD0000446AFF300802046BDE81040FFF77FBA1E
:100CE0004FF0013C50F8042B51F8043B9A4221D1BB
:100CF000A2EB0C03934313EACC1317D150F8042B47
:100D000051F8043B9A4215D1A2EB0C03934313EA2A
:100D1000CC130BD150F8042B51F8043B9A4209D163
:100D2000A2EB0C03934313EACC13DBD04FF000008B
:100D3000704700BFD01A01BAB1FA81F101F0180171
:100D400022FA01F0CB40C1F12001DBB2C0B2C01ADF
:100D50002CFA01F3D11A914311EAC311E6D170477D
:100D60005FEA400C08BF91F0000F4FEA8C234FEA76
:100D7000C12243EA51514FEA1C5018BF00F5F04020
:100D80004FEA300018BF41F000415FEA6C5C00F0B0
:100D90002980BCF1FF3F08BF40F080407047130C32
:100DA00006BF12044FF0100C4FF0000C130E04BFDE
:100DB00012020CF1080C130F04BF12010CF1040C09
:100DC000930F04BF92000CF1020CD30F04BF52002A
:100DD0000CF1010C11464FF00002A0F11F00A0EB36
:100DE0000C00704711F0004F08BF704731F0004110
:100DF0003FF4D5AF0B0C06BF09044FF0100C4FF0B9
:100E0000000C0B0E04BF09020CF1080C0B0F04BF01
:100E100009010CF1040C8B0F04BF89000CF1020CCA
:100E2000CB0F04BF49000CF1010CCCF12003A0EB67
:100E30000C0022FA03F302FA0CF241EA030100F17A
:100E40000100704720F07F4C80EA030023F07F47C9
:100E5000ACEB070303F57C5300F0004003F1FF0304
:100E60002DE980494FEA154B09B44FEA144325EAAE
:100E70000B4E24EA03480FF2042606EB1327490819
:100E80003E785FEA320203FB0667C7F5000707FBFF
:100E900006F64FEA54374FEAD64606F1020607FB3C
:100EA000066CCCF1005C4FEA1C472CEA074C07FBB0
:100EB00006F40CFB06F504EB15464FEA961634BF14
:100EC00000204FF000404FEAD13706FB07FC4FEA05
:100ED0001C4C0CFB0BF7D21B03FB0CF761EB07015F
:100EE0000CFB0EF7B0EB074072EB17420CFB08F758
:100EF00034BFA2EB0742B2EB074261EB17414FEA66
:100F00000C444FEA910706FB07FC4FEA1C4C0CFB14
:100F10000BF7B0EBC74072EB573203FB0CF734BF53
:100F2000A2EBC742B2EBC74261EB57310CFB0EF7A5
:100F3000B0EBC70072EB57720CFB08F734BFA2EBA3
:100F4000C702B2EBC70261EB5771039F4FEA8161A1
:100F500041EA921104EBCC044FEAD1374FEA8262A6
:100F600006FB07FC42EA90124FEA80604FEA1C4CF5
:100F70000CFB0BF7D21B03FB0CF761EB07010CFB1F
:100F80000EF7B0EB074072EB17420CFB08F734BFCB
:100F9000A2EB0742B2EB074261EB17414FEA8C55D7
:100FA0004FEA910704EB9C2406FB07FC4FEA1C4C1C
:100FB0000CFB0BF7B0EBC74072EB573203FB0CF79F
:100FC00034BFA2EBC742B2EBC74261EB57310CFB17
:100FD0000EF7B0EBC70072EB57720CFB08F734BF8B
:100FE000A2EBC702B2EBC70261EB577115EB4C25C0
:100FF0004FEA816141EA92114FEA82624FEAD137AA
:1010000042EA901206FB07FC44F100044FEA8060BC
:101010004FEA1C4C0CFB0BF7D21B03FB0CF761EBEC
:1010200007010CFB0EF7B0EB074072EB17420CFB0D
:1010300008F734BFA2EB0742B2EB074261EB17415E
:1010400015EB1C154FEA813141EA92414FEA823299
:1010500042EA90424FEA80304FEA0C7644F10004B5
:1010600048EA03434EEA0B484FF0000EB2EB080C7F
:1010700071EB030724BF624639464EEB0E0E4FF06C
:10108000000B0018524149414BEB0B0BB2EB080C23
:1010900071EB03077BF1000B24BF624639464EEB30
:1010A0000E0E4FF0000B0018524149414BEB0B0B59
:1010B000B2EB080C71EB03077BF1000B24BF624617
:1010C00039464EEB0E0E51EA020718BF46F00106F4
:1010D00016EB0E7655F1000254F1000103D5BDE880
:1010E0008901BDE80088BDE88901BDE80048B6195E
:1010F000524141EB0101A3F10103704780807F7EE3
:101100007D7C7B7A7978777676757473727171707D
:101110006F6E6E6D6C6C6B6A6A696868676666652F
:101120006464636362616160605F5F5E5E5D5D5CBD
:101130005C5B5B5A5A59595858575756565555552E
:101140005454535352525251515050504F4F4F4E8E
:101150004E4D4D4D4C4C4C4B4B4B4A4A4A494949DC
:10116000484848474747474646464545454444441E
:10117000444343434342424242414141002B9C4647
:1011800030D477002BD01CB54FEA370703B44FF0AB
:1011900010004FF01001BAF1000F06D0BCF1000FA3
:1011A000DCBF40F0080040F008014FF000000FBC29
:1011B000BDE810400BF1010BBBF1010F08BF5FEA66
:1011C000170722BF12F1010211F101014FF0004196
:1011D00043F1000300F0004043EA00007047F9D3F8
:1011E0005708D0E746EA064613F1400F4FEA164685
:1011F0001FDD13F1200FDFBF16430A460021203305
:101200005B42BED0C3F1200746EA064602FA07F762
:101210004FEA164646EA0706C3F1200722FA03F210
:1012200001FA07F721FA03F14FF0000342EA07023F
:10123000A7E746EA020646EA06464FEA164646EAA7
:101240000106BCBF46EA0646360C4FF000034FF0DD
:1012500000024FF0000194E72DE9804C9A46934636
:1012600070B491E8380007C831EA400C48BF34EA4E
:10127000430C03D5FFF7E6FDFFF780FFF0BCBDE8A8
:10128000008C2DE9804C9A46934670B491E8380062
:1012900007C810F0804F08BF13F0804F03D100F053
:1012A00005F8FFF76BFFF0BCBDE8008C20F07F472E
:1012B00080EA030023F07F4C07EB0C03A3F57C537B
:1012C00000F00040A3F1FE0392F0000F00F0B380A5
:1012D00095F0000F00F077802DE901494FEA1140A9
:1012E0004FEA144621EA004800FB06FC24EA0647C0
:1012F00008FB06F607FB08F800FB07F718EB0648A3
:101300004CEB164C4FEA124B18EB07484FEA1546C8
:101310004CEB174022EA0B4E0BFB06FC25EA064776
:101320000EFB06F607FB0EFE0BFB07F71EEB064E49
:101330004CEB164C4FF000061EEB074E4CEB174BD8
:1013400018EB0B0840F1000018EB0E0B58EB0008EF
:1013500040F100008F1A4FF000013CBFC943661BEB
:1013600014BFB5EB040C00213CBFC943F61B4FEA88
:1013700017444EEA8E0E27EA04454FEA1C4704FB49
:1013800007622CEA074C05FB07F70CFB05F604FB8C
:101390000CFC16EB074642EB174216EB0C4642EBF1
:1013A0001C421BEB060658EB0202414146EA9E0630
:1013B00001D5BDE80189B619524141EB0101A3F104
:1013C0000103BDE801894FEA14454FEA114724EAB9
:1013D000054621EA074C05FB07F406FB07F70CFB63
:1013E00006F105FB0CFC11EB074144EB17444FEAF7
:1013F000124711EB0C4144EB1C4422EA074C05FB5D
:1014000007F206FB07F70CFB06F605FB0CFC16EBD8
:10141000074642EB174216EB0C4642EB1C456A1896
:1014200054F1000148BF7047B619524141EB010128
:10143000A3F10103704795F0000F37D04FEA114236
:101440004FEA144721EA024624EA074C02FB07F15F
:1014500006FB07F70CFB06F402FB0CFC14EB07443D
:1014600041EB17414FEA154714EB0C4441EB1C418B
:1014700025EA074C02FB07F506FB07F70CFB06F60F
:1014800002FB0CFC16EB074645EB174516EB0C462A
:1014900045EB1C42121951F1000148BF7047B619C3
:1014A000524141EB0101A3F1010370474FEA14459A
:1014B0004FEA114724EA054621EA074C05FB07F1EC
:1014C00006FB07F70CFB06F24FF0000605FB0CFCD1
:1014D00012EB074241EB174112EB0C4251EB1C415E
:1014E00048BF7047921841EB0101A3F10103704717
:1014F0002948816941F400718161C16841F400713A
:10150000C160C16821F40071C16024480168244AA7
:101510001140016001680160016821F4807101607F
:10152000001D016821F002010160016821F46021C1
:101530000160016841F460210160016841F480119B
:101540000160016821F400610160144928310A68D2
:1015500022F470020A600A6800220A600F490C3106
:101560000A6822F00F020A600A6842F007020A6065
:10157000016841F001010160016841F0080101606A
:1015800001680907FCD4016841F0040101600168A9
:101590004907FCD4704700000010024004240140B9
:1015A000FFFFF0002948816941F480618161C168D1
:1015B00041F48061C160C16821F48061C160244848
:1015C0000168244A1140016001680160016821F44A
:1015D00080710160001D016821F002010160016855
:1015E00021F460210160016841F46021016001681B
:1015F00041F480110160016821F400610160144927
:1016000028310A6822F470020A600A6800220A601F
:101610000F490C310A6822F038020A600A6842F069
:1016200038020A60016841F001010160016841F07F
:101630000801016001680907FCD4016841F0040158
:10164000016001684907FCD47047000000100240A7
:1016500004280140FFFFF000704770477047704753
:101660007047704770477047FEE700000B49887865
:10167000401CC0B288703C280FD300228A70487882
:10168000401CC0B248703C2807D34A700878401C00
:10169000C0B20870182800D30A7070471C000020E0
:1016A0000A490879002802D0401E08717047C8789E
:1016B00020B1401EC8703B200871704700224A715B
:1016C00001208871C8710A7201F07EB81C000020E8
:1016D0007047000002460020012A19D0022A16D1C4
:1016E0001748026822F01F02026002680A43026083
:1016F00013482C38016841F48001016010483438E7
:1017000001688907FCD50E481830006880B2704720
:101710000C48026822F01F02026002680A4302605D
:1017200008482C38016841F48001016005483438CC
:1017300001688907FCD503481830006880B27047FB
:10174000342801403424014001460120FFF7C2BF84
:101750002DE9F0410F2000F05FF804F014F84FF08D
:1017600066342246214B04F021F803F073FD07464E
:10177000384604F00FFA22461D4B04F015F91D4EB1
:1017800004460D463146384604F088FB04F002FA60
:1017900022462B4603F04CFE0022174B03F048FE76
:1017A00003F058FD154904F079FB314604F080FA46
:1017B00004F0F0F903F0EEFA03F04CFD104904F0E8
:1017C00077FA04F0E7F90F4A0F4B03F075FD024674
:1017D0000B4600200D4903F02BFE0D4A0D4B04F083
:1017E000EFF8BDE8F04103F035BD000066664A3F02
:1017F00066660A4000401C4600408F4000007A4464
:1018000000E07645649E2278A5796B3F0000F03FAA
:10181000C3F5285C8F12714001460120FFF75ABFC3
:101820002DE9F05F002590F82110022903D0042152
:101830008163012595E001680A6822F00E020A60C2
:1018400001680A6822F001020A60474E464FB2154D
:10185000DFF814C1DFF81081DFF80C91DFF808A180
:10186000DFF804B10168783F13011402ACF1640C95
:10187000A8F15008A9F13C09AAF1280AABF1140B10
:101880004FF4801EB1422FD9B94201D1012227E085
:10189000614501D1102223E0414521D0494501D1C4
:1018A0001A461DE0514501D1224619E0594501D1A2
:1018B000724615E02D4EB14201D1012210E02B4EAF
:1018C0001436B14201D110220AE0284E2836B14226
:1018D00006D0264A3C32914201D11A4600E0224607
:1018E0002249091F0A6033E0B94201D101222CE0EC
:1018F000614501D1102228E0414526D0494501D15A
:101900001A4622E0514501D122461EE0594501D137
:1019100072461AE0B14202D14FF0807215E0134EC8
:10192000B14201D1012210E0104E1436B14201D172
:1019300010220AE00D4E2836B14206D00B4A3C3246
:10194000914201D11A4600E02246074980394A6097
:10195000012180F82110002180F82010416B01B195
:1019600088472846BDE8F09F8000024008040240F6
:101970002DE9F84F00240023DFF8E0914FF00F0825
:1019800009F1040A0AF1040B0BF1040EDFE0012750
:10199000A7403A40BA4275D1DFF8C4C14D68A5EB03
:1019A0000C0665452BD00DDC032D34D005DC35B39A
:1019B000012D19D0022D2FD11BE0112D16D0122D83
:1019C0002AD119E0B6F5881F19D006DCB6F5803F9C
:1019D00015D0B6F5801F1FD111E0B6F5001F0ED04F
:1019E000B6F5041F18D10AE0CB6815E0CB681B1DC3
:1019F00012E0CB6808330FE0CB680C330CE08B6847
:101A000023B1012B04D00823476105E0042303E040
:101A10000823076100E00023FF2A01D8054601E002
:101A200000F1040502D84FEA840603E0A4F1080699
:101A30004FEA86062F6808FA06FC27EA0C0703FA25
:101A400006F647EA06072F604D68ED007ED5454D46
:101A5000AE6946F00106AE61AD6905F0010500957D
:101A6000414D24F003067719BE68A5072D0F08FA2B
:101A700005FC26EA0C06DFF8F4C0604503D14FF000
:101A8000000C25E062E0DFF8E8C0604502D14FF0CD
:101A9000010C1DE0DFF8DCC0604502D14FF0020C04
:101AA00016E0DFF8D4C0604502D14FF0030C0FE020
:101AB000DFF8C8C0604502D14FF0040C08E0DFF841
:101AC000C0C0604502D14FF0050C01E04FF0060C9C
:101AD0000CFA05FC4CEA060CC7F808C04D68ED038B
:101AE00005D5D9F800501543C9F8005004E0D9F8DD
:101AF00000509543C9F800504D68AD0305D5DAF89C
:101B000000501543CAF8005004E0DAF8005095433D
:101B1000CAF800504D68ED0205D5DBF800501543BA
:101B2000CBF8005004E0DBF800509543CBF80050B0
:101B30004D68AD0205D5DEF800501543CEF80050D3
:101B400004E0DEF800509543CEF80050641C0A68AB
:101B500032FA04F57FF41BAFBDE8F88F00040140B2
:101B60000000111000100240000001400008014078
:101B7000000C014000100140001401400018014019
:101B8000001C01408068084201D0012070470020FD
:101B90007047C26821EA02030A4043EA0241016138
:101BA0007047002A01D00161704709040161704744
:101BB00001488068704700003800002002488168B2
:101BC00002781144816070473800002010B5074842
:101BD000016841F010010160052000F059F80F2064
:101BE00000F006F800F026F8002010BD00200240AA
:101BF00070B504460D4D4FF47A712878B1FBF0F0C2
:101C00000B490968B1FBF0F000F020FB08B101209E
:101C100070BD102C07D200222146501E00F018F88B
:101C20006C60002070BD012070BD000038000020F5
:101C30000C0000207047002809DB00F01F02012182
:101C400091404009800000F1E020C0F80011704789
:101C5000F0B40D460D4B1B68C3F30223C3F1070418
:101C6000042C00D90424191D072901D2002300E007
:101C7000DB1E012606FA04F1491E294099409E40C8
:101C8000761E16403143F0BC02F055BE0CED00E06C
:101C900000F00701054A10684FF6FF03184040EABC
:101CA0000120034908431060704700000CED00E07C
:101CB0000000FA052DE9F04704460D46002C17D028
:101CC000DFF83081D8F8000000F00700A84211D2F8
:101CD000D8F8000020F007002843C8F80000D8F822
:101CE000000000F00700A84204D00120BDE8F08702
:101CF0000120FBE72068404E810712D5400703D53D
:101D0000706840F4E06070602078000703D5706868
:101D100040F4605070607068A16820F0F0000843E3
:101D200070602078C0072CD06068012806D0022897
:101D300009D0316889070BD40120D7E731688903BE
:101D400006D40120D2E73168890101D40120CDE712
:101D5000716821F0030101437160FFF729FF074615
:101D600041F2883906E0FFF723FFC01B484501D93F
:101D70000320BBE77068616800F00C00B0EB810FD6
:101D8000F1D1D8F8000000F00700A8420ED9D8F829
:101D9000000020F007002843C8F80000D8F8000031
:101DA00000F00700A84201D001209FE720784007FB
:101DB00005D57068E16820F4E06008437060207821
:101DC000000706D57068216920F4605040EAC10020
:101DD000706000F03FF87168084AC1F30311515C6C
:101DE000C8400749086007480068FFF701FF002066
:101DF0007CE700000020024000100240266200083C
:101E00000C0000203C0000200148006870470000E2
:101E10000C00002000B5FFF7F7FF04494968044AA9
:101E2000C1F30221515CC84000BD00000010024017
:101E30003662000800B5FFF7E7FF04494968044A25
:101E4000C1F3C221515CC84000BD00000010024037
:101E50003662000885B014A090E80E00C068CDE995
:101E600002230191049014A000680090134B59685C
:101E7000134801F00C02042A10D0082A0ED101A840
:101E8000C1F38342805CC9030AD55968C1F340415C
:101E90001DF801100A4A5043B0FBF1F005B070473D
:101EA00008494843FAE70000020304050607080949
:101EB0000A0B0C0D0E0F1010010200000010024062
:101EC00000127A0000093D002DE9F84F0446002C6D
:101ED0000ED02078D94DC0075ED06868C0F381006D
:101EE00001280BD06868C0F38100022803D00CE001
:101EF0000120BDE8F88F6868C00306D52868800314
:101F00004AD56068A8BB0120F3E76068B0F5803F60
:101F100011D0A8B1B0F5A02F1BD0286820F48030D4
:101F20002860286820F480202860606830B3FFF7BC
:101F30003FFE06461EE0286840F480302860F4E743
:101F4000286820F480302860286820F480202860E9
:101F5000EBE7286840F480202860286840F480304F
:101F60002860E2E7FFF724FE801B642802D90320E3
:101F7000BFE711E028688003F4D50DE0FFF718FEF5
:101F8000064606E0FFF714FE801B642801D90320F3
:101F9000AFE728688003F5D42078DFF8A4828007B3
:101FA0004FF0010A4FF0000945D5686810F00C0F9A
:101FB00007D06868C0F38100022812D16868C003A6
:101FC0000FD42868800704D52069012801D001209A
:101FD0008FE72868616920F0F80040EAC1002860B6
:101FE00029E02069B8B1C8F800A0FFF7E1FD064676
:101FF00006E0FFF7DDFD801B022801D9032078E70A
:1020000028688007F5D52868616920F0F80040EA63
:10201000C10028600FE0C8F80090FFF7C9FD064630
:1020200006E0FFF7C5FD801B022801D9032060E709
:1020300028688007F5D42078000726D58148A16953
:1020400099B1C0F800A0FFF7B3FD064606E0FFF720
:10205000AFFD801B022801D903204AE7686A800788
:10206000F5D5012001F05EFE0FE0C0F80090FFF70B
:102070009FFD064606E0FFF79BFD801B022801D965
:10208000032036E7686A8007F5D42078400773D5C7
:102090000026E869C00008D4E86940F08050E86193
:1020A000E86900F0805000900126DFF89CB1DBF871
:1020B0000000C00514D4DBF8000040F48070CBF8B9
:1020C0000000FFF775FD074606E0FFF771FDC01B36
:1020D000642801D903200CE7DBF80000C005F4D523
:1020E000E068012812D0B0B105281DD0286A20F080
:1020F00001002862286A20F004002862E06841F2AA
:10210000883B28B3FFF754FD07461DE0286A40F0DE
:1021100001002862F2E7286A20F001002862286A9C
:1021200020F004002862E9E7286A40F004002862F1
:10213000286A40F001002862E0E7FFF739FDC01B84
:10214000584501D90320D4E6286A8007F5D50DE06B
:10215000FFF72EFD074606E0FFF72AFDC01B584596
:1021600001D90320C5E6286A8007F5D4012E03D1E2
:10217000E86920F08050E861E069A0B36968C1F3C4
:102180008101022946D0022805D0C8F86090FFF7E7
:102190000FFD04463AE0C8F86090FFF709FD0646D7
:1021A00006E0FFF705FD801B022801D90320A0E609
:1021B00028688001F5D4206AB0F5803F05D16868B1
:1021C000A16820F4003008436860D4E9080108439E
:1021D000696821F4741108436860C8F860A0FFF7CB
:1021E000E7FC044607E026E0FFF7E2FC001B0228BC
:1021F00001D903207DE628688001F5D51BE0FFF7B3
:10220000D7FC001B022801D9032072E62868800150
:10221000F5D410E001280CD06868226A00F48031FF
:10222000914204D1616A00F47010884203D0012009
:102230005FE601205DE600205BE600000010024042
:1022400000004242800442420070004010B5401E2F
:10225000B0F1807F01D3012010BD4FF0E024606118
:102260000F21601702F067FB0020A06107202061AA
:10227000002010BD7047704710B50446002C03D0F5
:1022800094F83D0010B107E0012010BD002084F853
:102290003C00204600F015F8022084F83D00211D86
:1022A000206801F02FFE01203D3460726070A07044
:1022B000E07020716071A071E071207220700020C8
:1022C00010BD704790F83D10012901D001207047E2
:1022D000022180F83D100168CA6842F00102CA601C
:1022E0000068114988420ED0104988420BD0B0F1E5
:1022F000804F08D00E49884205D00E49884202D04E
:102300000D49884209D1816801F00701062908D0EA
:10231000016841F00101016003E0016841F0010141
:102320000160002070470000002C01400034014093
:102330000004004000080040000C00400168CA682A
:1023400022F00102CA6001680A6A41F211131A42BE
:1023500007D10A6A9B101A4203D10A6822F00102CF
:102360000A60012180F83D1000207047704770B569
:102370000446206801694FF00005C943890716D457
:10238000C168C943890712D4E91E01610120207781
:1023900020688069800703D02046FFF7E7FF05E04B
:1023A000204600F09BF8204600F099F82577206839
:1023B0000169C943490718D4C168C943490714D4FE
:1023C0006FF004010161022020772068806910F419
:1023D000407F03D02046FFF7C9FF05E0204600F00C
:1023E0007DF8204600F07BF8257720680169C94315
:1023F000090717D4C168C943090713D46FF008014E
:102400000161042020772068C069800703D020463E
:10241000FFF7ACFF05E0204600F060F8204600F032
:102420005EF8257720680169C943C90618D4C168D8
:10243000C943C90614D46FF0100101610820207748
:102440002068C06910F4407F03D02046FFF78EFF5C
:1024500005E0204600F042F8204600F040F82577DD
:1024600020680169C943C90708D1C168C943C907C0
:1024700004D1891E0161204600F032F8206801690C
:10248000C943090609D4C168C943090605D46FF0D8
:10249000800101612046FFF7EDFE20680169C94314
:1024A000490609D4C168C943490605D46FF0400103
:1024B0000161204600F020F820680169C9438906BF
:1024C0000BD4C168C943890607D46FF020010161AC
:1024D0002046BDE87040FFF7CEBE70BD7047704724
:1024E0000068B0F1804F03D120210248FFF751BBB3
:1024F00070470000001801407047704770B50446EF
:1025000022681068D168526900F00F03002B08D1CF
:10251000850606D58D0604D52046BDE8704002F03C
:1025200014B9002B60D002F0010301F490751D4333
:102530005AD0C50705D0CD0503D5E56B45F001059B
:10254000E563450705D5D50703D0E56B45F00205E2
:10255000E563850705D5D20703D0E26B42F004029C
:10256000E263020707D501F020021A4303D0E26BB1
:1025700042F00802E263E26B002A2AD0800604D50A
:10258000880602D5204602F0E0F820684069C0F3D2
:102590008010E16B090700D400B3204602F0BAF8BE
:1025A00020684169490615D5416921F04001416122
:1025B000606B58B115494163606BFFF731F9002832
:1025C00007D0606B416BBDE8704008472046FFF7BD
:1025D00094FF70BD2046FFF790FF70BD2046FFF7C7
:1025E0008CFF0020E06370BD020606D50A0604D504
:1025F0002046BDE8704002F04DB94006F3D54806CC
:10260000F1D52046BDE8704002F092B805470008B9
:1026100070B50446002C04D094F83900002510B1A0
:1026200006E0012070BD84F83850204600F022F802
:10263000242084F839002068C16821F40051C16069
:10264000204602F0CBF82068016921F49041016135
:102650002068416921F02A0141612068C16841F484
:102660000051C160E563202084F8390084F83A0005
:10267000002070BD10B586B000681E49884236D172
:102680001D48816941F004018161816901F0040103
:102690000191816941F004018161816901F00401C6
:1026A0000191816941F480418161806900F4804039
:1026B00001904FF4007002900220039001200490DA
:1026C000032005900D4C02A92046FFF751F9211572
:1026D00002910021039102A92046FFF749F9252024
:1026E000FFF7A9FA032211462520FFF7B1FA06B039
:1026F00010BD0000003801400010024000080140F9
:1027000090F83A30202B01D002207047F9B1F2B195
:1027100090F83830012B1CD081628285C28500215F
:10272000C163222280F83A2080F838100168CA6814
:1027300042F48072CA6001684A6942F001024A614B
:102740000068C16841F02001C1600020704701208D
:10275000704702207047000030B400681649884274
:1027600028D1164A5088010419D411464404097826
:102770004FF0000307D50A2901D053800FE040F441
:10278000004050800BE00D2910D00D4DC0F30D041A
:102790002955401C80B25080C72800D95380084872
:1027A000012230BC0549C830FFF7AABF40F4804081
:1027B0005080F4E730BC7047003801403000002002
:1027C0003C0D00207047FEE702494AF6AA20086047
:1027D000704700000030004000B585B00B488169AB
:1027E00041F010018161806900F0100000900F201D
:1027F000019000200290012003900320049001A981
:102800000348FFF7B5F805B000BD00000010024016
:102810000010014030B585B02248816941F0400187
:102820008161816901F040010091816941F00801F5
:102830008161816901F008010091816941F0010124
:102840008161806900F0010000901749486820F01C
:10285000E06040F0007048604FF60F70019001207A
:102860000290039003200490104C01A92046FFF72A
:102870007FF8172101910E4D01A92846FFF778F83E
:1028800000224FF47F412046FFF78BF900220F21F1
:102890002046FFF786F9002210212846FFF781F92C
:1028A00005B030BD0010024000000140001801409A
:1028B000000C014004490A6822F47F420A600A6859
:1028C00042EA0020086070470C180140FEE770479C
:1028D0007047000070B505460E461446002D06D020
:1028E00046B11048807840B11220207070BD04209D
:1028F000207070BD0C20207070BD2A78012A08D08D
:10290000022A06D0032A04D0042A02D00120207013
:1029100070BD1020FDF78AFC6E61FDF795FC00206C
:10292000207070BD5000002010B500F01BF800F0C2
:10293000FBFE00F009FF00F019FF00F0C9FE00F0F7
:1029400091FE00F0A5FF00F0CBFF00F047FF00F084
:102950006DFF00F0B7FC00F01DF8BDE81040FFF778
:10296000B7BF000008494FF480700022401E04C128
:102970000028FBD10549064821F00701416002808B
:102980001021816070470000440E00204412002096
:1029900044000020704700000449C879012804D190
:1029A0008878FF2801D2401C8870704750000020B2
:1029B00070B5144CE079012822D11020FDF736FCC7
:1029C0000546A17809B1491EA170A07898B9E078B0
:1029D00088B900F0CFFF0C48627950F82210A1624C
:1029E0002079824207D0086C401C0864E068401CD3
:1029F000E060FDF75EFC2846BDE87040FDF724BCB2
:102A000070BD0000500000203417002010B5094CA4
:102A1000E07901280DD11020FDF708FCA17821B93B
:102A2000E178FF2901D2491CE170BDE81040FDF7B3
:102A30000BBC10BD5000002010B5114CE0790128EE
:102A40001CD11020FDF7F2FBA17819B1BDE81040B0
:102A5000FDF7FABBE17869B1491EC9B2E17019B15D
:102A6000BDE81040FDF7F0BBFDF7EEFBBDE8104000
:102A700000F05ABFBDE81040FDF7E6BB10BD0000F6
:102A80005000002070B505460E480078002801D09F
:102A9000002070BD1020FDF7C9FB0B490C680CB17C
:102AA00062680A60FDF7D0FB4CB1032020702581DD
:102AB0000020606005A06061204600F0C9FD20464E
:102AC00070BD000052000020600000203F000000A8
:102AD0002DE9F047054689461446002D06D0287892
:102AE000032806D001202070BDE8F0870420207064
:102AF000FAE72848007810B102202070F4E7264851
:102B0000007810B10D202070EEE71020FDF78EFB4D
:102B100007462889002630B1401E28813846FDF737
:102B200093FB2670E0E7DFF87480D8F8000010F817
:102B3000381F41F001010170467040F8049C28469E
:102B400000F060FD3846FDF77FFB00F0EDFE102041
:102B5000FDF76CFB0746D8F8000090F8391099B1E2
:102B6000022913D0294600F025FD0A202070D8F84C
:102B700000001C300677467706604660866038465F
:102B8000BDE8F047FDF760BB2670F0E70E2020702F
:102B9000EDE70000520000205300002070000020EC
:102BA00070B50446002C04D02078032803D00120FF
:102BB00070BD042070BD1020FDF738FB0546A07ADB
:102BC00060B1002301221946204600F0B9FC2846D6
:102BD000FDF73AFB00F0A8FE002070BD20894FF6FB
:102BE000FF71884206D2401C20812846FDF72CFB4D
:102BF000002070BD2846FDF727FB332070BD000084
:102C000010B5094CE07900280CD100F0B3FE6079D2
:102C10002071064951F82000A0622062BDE81040F2
:102C2000FDF71BBB10BD0000500000203417002032
:102C3000FEF712BD2DE9FE4305460E4690461C46A2
:102C40003F2C02D92A20BDE8FE831020FDF7EEFAC2
:102C50001A49097819B1FDF7F7FA3C20F3E7184F44
:102C600057F8241019B1FDF7EFFA2820EBE70121FE
:102C700047F82410FDF7E8FA00234246314628467B
:102C800000F0B0F901460025009501952B462A4633
:102C90002046029500F07EFE064646B11020FDF764
:102CA000C5FA47F82450FDF7CFFA3046CBE7054880
:102CB00000780128F9D100F037FEF6E75200002035
:102CC00034170020570000202DE9FF4F83B08246C3
:102CD000DDE91197DDE913868B461C463F2C03D9AD
:102CE0002A2007B0BDE8F08F1020FDF79FFA1D499C
:102CF000097819B1FDF7A8FA3C20F2E71A4D55F80A
:102D0000241019B1FDF7A0FA2820EAE7012145F8BF
:102D10002410FDF799FA32463946484600F038FF4C
:102D2000334659465046059A00F05CF90146CDE914
:102D3000007802964A462046109B00F02BFE06467D
:102D40004EB11020FDF772FA002145F82410FDF76E
:102D50007BFA3046C5E7054800780128F9D100F034
:102D6000E3FDF6E752000020341700205700002052
:102D7000FEF773BC2DE9F047054648480078002867
:102D800002D04020BDE8F0873F2D04D005D3FF2DB1
:102D900003D02A20F6E73E20F4E71020FDF746FA9C
:102DA0000646FF2D03D13E48006890F83A503D4F4B
:102DB00057F825405CB1012C0ED094F83C103A4AEB
:102DC00094F83D30505C9843505450B10FE0304679
:102DD000FDF73AFA4320D5E73046FDF735FA3D20B6
:102DE000D0E7324894F83E20017891430170E169C0
:102DF00011B1204600F0DEFB216A11B1204600F03F
:102E0000ECFBE06A08B100F051FC4FF00008C4F898
:102E1000348084F8388084F83980DFF8949099F809
:102E20000000FF2802D2401C89F800003046FDF760
:102E30000BFA00F083FB1020FDF7F8F9064699F82D
:102E4000000010B1401E89F80000204600F03CF858
:102E500018490878401E087047F82580A06990B18D
:102E600061694161D4E905108861134801686161B5
:102E7000046012A060653046FDF7E6F9104800785E
:102E8000012807D008E06069C0F818800D49606922
:102E90000860EAE700F048FD002073E752000020D8
:102EA000700000203417002084000020560000200D
:102EB0005300002058000020740000203F00000054
:102EC000570000207C000020FEF7C8BBFEF7C7BB00
:102ED00070B505460E4614463F2D04D9FF2D02D08D
:102EE0002A20207070BD2EB11548007828B112201C
:102EF000207070BD0C20207070BD1020FDF796F979
:102F00000246FF2D03D10F48006890F83A500E4852
:102F100050F82500432540B101280BD046651046E6
:102F2000FDF792F90020207070BD1046FDF78CF976
:102F3000257070BD1046FDF787F9257070BD000043
:102F4000520000207000002034170020FEF788BBDC
:102F5000FEF787BB2DE9F04104460E463F2C04D90D
:102F6000FF2C02D02A20BDE8F0814EB10020306055
:102F700070601020FDF75AF90146FF2C02D005E0E1
:102F80000920F0E71548006890F83A40144850F8D6
:102F9000240058B101280ED0027CD20710D00024A2
:102FA000C76885680846FDF74FF90FE00846FDF74A
:102FB0004BF94320D7E70846FDF746F94320D2E70F
:102FC0000846FDF741F94520CDE7641C01CD0028F6
:102FD000FBD03460381B70600020C4E77000002014
:102FE00034170020121D22F007024FF0807342F8C0
:102FF000043C42F8080C0C3A14481060A2F134006A
:103000004FF0123303634FF00332C2624FF00232CB
:1030100082625210426201626FF00201C1614FF0A0
:10302000113181611101416159100161D100C1600B
:103030004FF0073181604FF0063141604FF00531AC
:1030400040F804199100016070470000B53A00088B
:1030500070B504463F2C04D005D3FF2C03D02A20A2
:1030600070BD472070BD1020FDF7E0F801461F48F5
:10307000FF2C06D0006890F83A00A04206D1012546
:1030800005E0006890F83A40012500E00025184866
:1030900050F8240058B101280ED090F83C20154C6F
:1030A00090F83D60A35CB343A35453B10FE00846CE
:1030B000FDF7CAF8482070BD0846FDF7C5F8432063
:1030C00070BD0D4A90F83E401378A343137010F87A
:1030D000382F42F0080202700846FDF7B5F8012DBE
:1030E00001D100F021FC002070BD00007000002024
:1030F000341700208400002056000020FEF7B2BAEA
:1031000070B5044612480078002820D11148007894
:1031100000281CD1002C1AD01020FDF787F80E498A
:10312000096891F83C200D4D91F83D60AB5CB343CC
:10313000AB542BB90A4A91F83E501378AB43137045
:103140004C63FDF781F8BDE8704000F0EDBB70BD49
:103150005200002053000020700000208400002056
:103160005600002070B51B4C2478002C01D055204F
:1031700070BD194C24780CB1322070BD10B909B95A
:1031800002B91BB13B2903D9512070BD542070BD39
:103190003B2A01D9522070BD4FF47A74A34201D367
:1031A000532070BD4FF47A756B43B3FBF4F34FF4C7
:1031B00061646043C1EB011100EB8100104400EB3E
:1031C0004001C1EBC01003EBC000FFF799FF0020E6
:1031D00070BD000052000020530000202DE9F04196
:1031E00000F056F81020FDF721F8284D296B491CF6
:1031F0002963FDF729F8E879012844D1687A012686
:10320000002748B1012809D0022809D001206F7297
:10321000002838D0EC6A32E00120F9E70020F7E717
:1032200001206E72F4E71020FDF700F8616B19B30E
:10323000491E616301BB94F8381011F0370F06D0B6
:1032400001F0C80184F8381084F8396001E084F88E
:10325000397094F8381009070ED494F83E10AA7902
:103260001143A971094A94F83C10343294F83DC0D6
:10327000535C43EA0C0353546469FCF7E5FF94F88C
:103280003A003F28CFD1BDE8F08100005000002077
:1032900010B5FEF7E8F907490888401C80B208809D
:1032A0000A2805D300200880BDE8104000F004B8CB
:1032B00010BD00004400002001480068FFF770BC0A
:1032C000A400002038B54FF42071244800F0D6FA4D
:1032D0003821234800F0D2FA002000241F4B642537
:1032E000411C0A4689B200EB800003EBC00001EBF1
:1032F000810103EBC101057080F82540C16019A16F
:10330000016290B20F28EBD300EB800003EBC0000A
:10331000057080F82540C46012A101621248046063
:1033200012480480124910200880124803600120CE
:10333000FFF7A8FB104C20600020FFF7A3FB0F4D08
:1033400028606A460EA12068FFF7C4FA6A4611A1F8
:103350002868FFF7BFFA00F027F838BD44210020A5
:10336000C42500203F0000009C0000209A0000209F
:1033700098000020A8000020A0000020A400002049
:1033800075432F4F532D494920546D724C6F636B19
:103390000000000075432F4F532D494920546D7292
:1033A0005369676E616C000000B587B080220B4BDB
:1033B000CDE9013203200021CDE903104FF6FD7065
:1033C00000903D23064A0748FFF77EFC06AA06A1A7
:1033D0003D20FFF77DFD07B000BD0000C4230020A5
:1033E000C02500205934000875432F4F532D4949FB
:1033F00020546D7200000000032280F82520144A3A
:103400000129126817D08169C9B11144416141692C
:103410000722B1FBF2F302FB13110E4A02EBC101CA
:1034200000230A687AB10860C26010618A88521C61
:103430008A8003617047C16911444161E7E7C1694E
:1034400011444161E3E70860C36001228A80F0E72C
:103450009C000020C425002008B5DFF87080DFF84C
:1034600070A01C4E4FF007096A460021D8F80000F2
:10347000FFF72EFBFFF7CAFA3068401C3060B0FB44
:10348000F9F109FB11000AEBC0000468022713E000
:10349000E5686069316888420DD1204600F01CF86B
:1034A00094F8240002280CD084F82570626812B1C8
:1034B0002046A16890472C46002CE9D1FFF7BCFAC2
:1034C000D2E701212046FFF797FFEFE7A400002095
:1034D000C42500209C00002010B541690722B1FBE3
:1034E000F2F302FB13110C4A02EBC10100240B683A
:1034F000C268834203D10A602AB1146103E0036900
:10350000DA6002B11361012280F82520C4600461F1
:103510008888401E888010BDC425002010B510206A
:10352000FCF784FE0446FFF737FA2046FCF78CFED2
:10353000FFF754FEBDE81040FFF73ABA70470000AD
:10354000F0B505468C46A87A1749085C2C18E47A31
:10355000095D01EBC001CEB2144951F826400027A5
:1035600044F8347F44F80CCC217991432171637184
:10357000343C09070BD40E4994F83E208B791A434A
:103580008A71343194F83D300A5C1A430A54294652
:10359000204600F00FF8216A21B1204600F01DF806
:1035A000276265623046F0BD5E6200083417002075
:1035B0005000002010B590F83C2090F83D408B184A
:1035C000DA7AA243DA72002A04D18A7A90F83E307D
:1035D0009A438A720021C16110BD70B510F83C4F4A
:1035E00085784678086809E00319DA7AB243DA7216
:1035F00012B9827AAA438272091D08680028F3D1A1
:1036000070BD000030B5114C216AC86191F83C30A2
:1036100000F10B0291F83D109D5C0D439D54216A11
:10362000827A3C318B781A438272087804F1340331
:103630004D781A5C3C39AA431A54002A04D191F8F7
:103640003E10A0798843A07130BD000050000020DA
:103650000022827200214318DA72491CC9B208297B
:10366000F9D3704710B550210D4800F007F900203C
:103670000B4B0024411C8AB203EB001003EB021237
:103680000470426007A2C26088B20428F2D303EB40
:1036900000100470446003A1C1600348036010BDC2
:1036A0001C2000203F0000008C00002042680168C0
:1036B0000023002A05D0116001B14A608068C3620E
:1036C0007047C26851600029F8D04B60F6E70000EF
:1036D00010B5F021114800F0D1F800200F4B002464
:1036E000411C0A4689B200EB400003EBC00001EB2D
:1036F000410103EBC1010470416009A1416190B235
:103700000928EDD300EB400003EBC00004704460D7
:1037100003A141610348036110BD00004412002071
:103720003F00000050000020064800210163817026
:10373000C1700172C171C160C1618161416141703B
:103740008172704750000020074B002199710020C2
:1037500003F134021154401CC0B20828FAD3197185
:1037600059719962196270475000002010B54FF4EA
:10377000FD61164800F082F84FF48071144800F0A3
:103780007DF80020114B411C0A46C9B2C0EBC004B1
:1037900004EB001003EB8000C1EBC10404EB01114A
:1037A00003EB810141610BA14165D0B21528EAD339
:1037B000C0EBC00101EB001003EB80000021416170
:1037C00004A242650448C162436210BD341800205F
:1037D000341700203F0000005000002000B587B0E3
:1037E00080220B4BCDE9013203200021CDE90310EB
:1037F0004FF6FF7000903F23064A0748FFF764FA30
:1038000006AA06A13F20FFF763FB07B000BD00003A
:103810003415002030170020993A000875432F4FC7
:10382000532D49492049646C6500000000B587B0FC
:1038300080220B4BCDE9013203200021CDE903109A
:103840004FF6FE7000903E23064A0748FFF73CFA09
:1038500006AA06A13E20FFF73BFB07B000BD000013
:103860003413002030150020CD3A000875432F4F47
:10387000532D49492053746174000000002203E075
:1038800000F8012B491E89B20029F9D170470000C8
:1038900010B578210F48FFF7F1FF00200D4A00EB2B
:1038A000400102EBC101401C00EB400302EBC303EB
:1038B0004B6009A34B6180B20428F0D300EB4000B9
:1038C00002EBC0000021416003A141610348026096
:1038D00010BD00006C2000203F0000009000002080
:1038E00010B560210E48FFF7C9FF00200C4B411CAA
:1038F0000A4689B200EB400003EBC00001EB410136
:1039000003EBC101016090B20328F0D300EB40004B
:1039100003EBC000002101600248036010BD0000FD
:10392000E42000209400002070B51020FCF77EFCFD
:1039300005460E4CA07898B9E07888B900F01AF8DE
:103940000B48627950F82210A1622079824207D098
:10395000086C401C0864E068401CE060FCF7A9FCAF
:103960002846BDE87040FCF76FBC00005000002006
:10397000341700200649054A8879105C01F13403A8
:103980001B5CD25C02EBC000487170475E620008AD
:10399000500000202DE9F05F0546DDE90AAB0E4638
:1039A000904699461020FCF741FC384F7C6A002C69
:1039B00067D0203454F80C1C7962FCF745FC44F8BD
:1039C000206CA576002626766676666144F81CBCD7
:1039D00044F814AC44F8188C0C9824F8100C24F813
:1039E0000E9CE677E808207705F00701E1760123D1
:1039F00003FA00F2A27703FA01F2627744F8046C4A
:103A000026606660E660A6602662A6626662E6627E
:103A100026631FA06063203C002004EB80018E65BC
:103A2000401CC0B20028F8D02046FFF701F9102052
:103A3000FCF7FCFB174941F82540FCF705FC204644
:103A4000FFF796F91020FCF7F1FB0146F86A606178
:103A5000A66100B18461FC623C34BA79A07810435D
:103A6000B8710A4A207834326478135C23431354C3
:103A7000387A401C38720846FCF7E6FB0020BDE8A7
:103A8000F09FFCF7E1FB4220F9E700005000002026
:103A90003F00000034170020054C1020FCF7C6FB47
:103AA000E169491CE161FCF7CFFBFFF70FFAF4E78E
:103AB0005000002010B504480068FFF747FABDE841
:103AC0001040FF20FFF756B970000020214C02E0A3
:103AD000C820FFF715FB60780028F9D060696426DC
:103AE000B0FBF6F06061002518B92570FF20FFF7E4
:103AF000AFFA1020FCF79AFB616964225143E1613F
:103B0000FCF7A2FB0120FFF7FBFA1020FCF78EFB6D
:103B1000E561FCF799FB6420FFF7F2FA1020FCF74F
:103B200085FBE169A161FCF78FFBD4E90501B1FBDD
:103B3000F0F040B2C0F1640040B2002801DB207018
:103B400003E02570B1FBF6F06061FFF701FA00F0C9
:103B500003F8D7E7500000207CB500240B4D6946E0
:103B60002046FFF7F7F958B955F8241041B101295B
:103B700006D0D1E9020200EB8200C8640198086512
:103B8000641CE4B23F2CEAD97CBD0000341700204D
:103B9000D30707D0920705D5002201E0491E04C0D3
:103BA0000029FBD170470000074A136823F0070380
:103BB0001360136800F00700034313600348405C80
:103BC0008030C0B2FEF776BE0C0C01401000002021
:103BD00010B5234C6C281ED008DC4C281BD0522872
:103BE00033D053281DD0542806D10AE072282CD097
:103BF000732816D0742804D0BDE8104019A0FCF733
:103C0000A1BB606801F0C6FF0246BDE810400B464C
:103C100021A0FCF797BB6188BDE8104024A0FCF709
:103C200091BB26A0FCF78EFB606801F0B3FF024653
:103C30000B4619A0FCF786FB61881DA0FCF782FBF0
:103C4000BDE8104027A0FCF77DBB30A0FCF77AFB55
:103C5000642000F0C1FFBDE8104001F05DBA000033
:103C600000000020436F6D6D616E64733A2054282C
:103C700054656D70292C204C284C69676874292C78
:103C80002053285374617465292C2052285265737F
:103C90006574290D0A00000054656D7065726174C9
:103CA0007572653A20252E316620430D0A0000000A
:103CB0004C696768743A2025640D0A000D0A3D3D81
:103CC0003D3D3D3D3D3D3D3D2053797374656D2047
:103CD000537461747573203D3D3D3D3D3D3D3D3D1B
:103CE0003D0D0A003D3D3D3D3D3D3D3D3D3D3D3DA4
:103CF0003D3D3D3D3D3D3D3D3D3D3D3D3D3D3D3DF4
:103D00003D3D3D3D3D3D3D3D0D0A00005379737401
:103D1000656D207265626F6F74696E672E2E2E0D51
:103D20000A00000008B507494FF4FA520968B1FBD0
:103D3000F2F14143009100BF0098411E0091FAD278
:103D400008BD00000C00002070470000064A136800
:103D500023F007031360136800F0070003431360A8
:103D60000248405CFEF7A6BD0C0C0140100000208C
:103D700010B505480078012801D1FFF7CFFBBDE859
:103D80001040FDF71BBF00005700002010B5FDF7E5
:103D90001DFF4FF4E01001F0D1F9482000F006FFBC
:103DA000FEF738FD4FF4E13001F022FA00F01EFC7E
:103DB000FDF79EFBFDF7F6FB00F070F800F05EFEED
:103DC000FEF70AFD41F61F4142F20F7000F05CFF62
:103DD00006A0FCF7B7FA11A0FCF7B4FA19A0FCF79B
:103DE000B1FABDE8104020A0FCF7ACBA0D0A3D3D89
:103DF0003D3D3D3D3D3D3D3D3D3D3D3D3D3D3D3DF3
:103E00003D3D3D3D3D3D3D3D3D3D3D3D3D3D3D3DE2
:103E10003D3D3D3D3D3D0D0A00000000202020209D
:103E200075432F4F532D4949204D756C74692D549E
:103E300061736B2053797374656D20537461727470
:103E40000D0A00002020202054656D706572617499
:103E500075726520616E64204C69676874204469DE
:103E600073706C61790D0A003D3D3D3D3D3D3D3D2A
:103E70003D3D3D3D3D3D3D3D3D3D3D3D3D3D3D3D72
:103E80003D3D3D3D3D3D3D3D3D3D3D3D3D3D3D3D62
:103E90000D0A0D0A000000007047000000B585B053
:103EA000002002900A48816941F00801816180691F
:103EB00000F00800009020200190012003900320D2
:103EC000049001A90348FDF753FD05B000BD0000B3
:103ED00000100240000C01400148FEF748BA000003
:103EE000AC0C002010B5064C20680069C043C00728
:103EF00005D100F0F5FB21686FF00100086110BDED
:103F0000F40C00202DE9F04102681D4D1D4E1E4F9E
:103F1000DFF878C01E4B4FF08048A84209D0984285
:103F200007D0404505D0B04203D0B84201D060452B
:103F300003D122F070044A682243A84209D0984273
:103F400007D0404505D0B04203D0B84201D060450B
:103F500003D122F44074CA6822434C6922F08002E3
:103F6000224302608A68C2620A688262A84201D063
:103F7000984201D10969016301214161BDE8F081E5
:103F8000002C01400004004000080040000C0040EC
:103F90000034014038B510A0FCF7D4F9174C16E0F6
:103FA000FDF7D6FB60600E20FDF7CEFB60806068F9
:103FB00001F0F0FD6288009202460B4610A0FCF76B
:103FC000C1F90023012219461846FFF7CBF82078E3
:103FD0000028E5D138BD00005B41444320546173A3
:103FE0006B5D2053746172742073756363657373C2
:103FF00066756C2E2E2E0D0A0000000000000020B9
:104000005B4144435D2054656D703A20252E316636
:1040100020432C204C696768743A2025640D0A00FF
:1040200038B5084C09E06A460021A068FEF750FD4B
:104030009DF8000008B900F08BFD20780028F2D12F
:1040400038BD0000000000202DE9F05F9EA0FCF7C5
:1040500079F90A26A64C30E1607828B101221102D4
:10406000A448FDF79EFD05E000224FF48071A148B1
:10407000FDF797FD6078012805D0012251029D4887
:10408000FDF78FFD05E000224FF400719948FDF720
:1040900088FD606801F0CEFEC5B2284601F0EAFE58
:1040A000616801F0C7FF944901F0F8FE01F0C2FE1B
:1040B000C7B261884FF47A70B1FBF0F101F0FF08EC
:1040C0006188B1FBF0F200FB12116420B1FBF0F14A
:1040D00001F0FF096188B1FBF0F200FB1210B0FBA8
:1040E000F6FA6088B0FBF6F106FB110B607818B1A8
:1040F000607801287ED0D7E080480078F0B30021B6
:104100000846FFF723FE642000F090FD0021012007
:10411000FFF71CFE642000F089FD0A210220FFF752
:1041200015FE642000F082FD754D2878B0FBF6F195
:104130000320FFF70BFE642000F078FD2878B0FB29
:10414000F6F106FB11010420FFF700FE642000F0E9
:104150006DFD0A210520FFF7F9FD642000F066FDE2
:10416000684D2878B0FBF6F10620FFF7EFFD6420DC
:1041700000F05CFD2878B0FBF6F100E008E006FBFB
:1041800011010720FFF7E2FD642000F04FFD8BE0F6
:104190005D4D2878B0FBF6F10020FFF7D7FD6420D5
:1041A00000F044FD2878B0FBF6F106FB1101012078
:1041B000FFF7CCFD642000F039FD0A210220FFF753
:1041C000C5FD642000F032FD504D2878B0FBF6F1BB
:1041D0000320FFF7BBFD642000F028FD2878B0FB2A
:1041E000F6F106FB11010420FFF7B0FD642000F09A
:1041F0001DFD00E01CE00A210520FFF7A7FD64205B
:1042000000F014FD424D2878B0FBF6F10620FFF7D0
:104210009DFD642000F00AFD2878B0FBF6F106FB56
:1042200011010720FFF792FD642000F0FFFC3BE046
:10423000B5FBF6F10020FFF789FD642000F0F6FCE5
:10424000B5FBF6F006FB10510120FFF7ADFC642032
:1042500000F0ECFC39460220FFF778FD642000F006
:10426000E5FC0A210320FFF771FD642000F0DEFC6D
:1042700041460420FFF76AFD642000F0D7FC494660
:104280000520FFF763FD642000F0D0FC51460620B6
:10429000FFF75CFD642000F0C9FC59460720FFF7DA
:1042A00055FD642000F0C2FC0020FEF703FB002255
:1042B000022311461046FEF755FF207800287FF4B0
:1042C000CBAEBDE8F09F00005B446973706C617910
:1042D000205461736B5D2053746172742073756335
:1042E0006365737366756C2E2E2E0D0A0000000038
:1042F00000000020001801400000204124000020A0
:104300001F000020200000201C0000201D000020B5
:104310001E0000202DE9F05F3AA0FCF713F8DFF84B
:1043200008B1424FDFF8088100264FF00109DFF89D
:1043300004A1414D60E0002000F0CEFC0446012CB9
:1043400009D1687850B10020687069783BA0FBF70C
:10435000F9FF00F06FFB022C02D01AE00120F3E716
:10436000A868FEF71DFC3E7088F800603C480670A7
:104370003C4806703C4806708AF800603B4880F86C
:1043800000908BF800603A4806706E7039A0FBF719
:10439000D9FF032C11D13878401CC0B238703C28AA
:1043A00000D33E7088F800608BF800906E7039780A
:1043B0003FA0FBF7C7FF00F0E5FB042C16D19AF8ED
:1043C000000028B18AF8006042A0FBF7BBFF0BE0B9
:1043D000387898F80010084306D08AF800902348EF
:1043E000067043A0FBF7AEFF00F0CCFB00221423C5
:1043F00011461046FEF7B6FE287800289BD1BDE88E
:10440000F09F00005B4B4559205461736B5D205356
:1044100074617274207375636365737366756C2E53
:104420002E2E0D0A00000000240000201F00002096
:104430002000002021000020000000205B53746158
:1044400074655D20446973706C6179204D6F64659B
:10445000204368616E6765643A2025640D0A000098
:104460001C0000201D0000201E0000202200002053
:10447000230000205B416374696F6E5D20506C61A6
:1044800079696E67204D75736963202620526573C4
:1044900065742053797374656D20746F20466F7254
:1044A000776172642054696D696E670D0A000000BF
:1044B0005B54696D65725D204164642031206D69D3
:1044C0006E2C20546F74616C3A202564206D696EE7
:1044D0000D0A00005B54696D65725D20436F756E57
:1044E00074646F776E20506175736564210D0A00E6
:1044F0005B54696D65725D20436F756E74646F7790
:104500006E20537461727465642F526573756D65A6
:1045100064210D0A0000000010B50020FEF7B2FA79
:10452000154988601020FBF781FE04460523134AD5
:1045300000211348FEF77EFB0623124A0021124891
:10454000FEF778FB0723114A00211148FEF772FBA2
:104550000823104A00211048FEF76CFB09230F4A7C
:1045600000210F48FEF766FB0A20FEF771FD20468A
:10457000BDE81040FBF768BE00000020A802002044
:10458000953F0008A8040020A5450008A8060020C3
:1045900049400008A808002015430008A80A002088
:1045A000214000082DE9F0410C48FBF7CBFE0C4CF4
:1045B00000250C4E0C4F0CE02088000403D5307809
:1045C0002580FFF705FB0022322311461046FEF737
:1045D000C9FD38780028EFD1BDE8F08134640008C7
:1045E000320000203C0D0020000000203748816987
:1045F00041F01001816136490A6822F47F020A60A5
:10460000416821F440414160416841F4004141600A
:10461000816941F400718161C16841F40071C16038
:10462000C16821F40071C1602A4801682A4A11401A
:10463000016001680160016821F480710160001D62
:10464000016821F002010160016821F4602101602C
:10465000016841F460210160016841F4801101604A
:10466000016821F400610160016841F4000101600A
:10467000184928310A6822F470020A600A68002288
:104680000A60011D0A68154B1A400A600A6842F464
:10469000E0420A600A6842F460320A600A6842F442
:1046A000E0120A60016841F001010160016841F017
:1046B0000801016001680907FCD4016841F00401A8
:1046C000016001684907FCD47047000000100240F7
:1046D0000008014004240140FFFFF000FF0FE0FF4D
:1046E00010B5074CA079002801D0FCF7BFFF607916
:1046F000002803D0BDE81040FCF7D2BF10BD000079
:104700001C00002010B5406A0021C185C184FDF75E
:10471000F4FE10BD0168CA6822F49072CA60016894
:104720004A6922F001024A61202180F83A1070475C
:1047300010B50168CA6822F04002CA60202180F8E2
:104740003910FEF73FF8002010BD10B590F83A1070
:10475000222901D0022010BD82684FF480539A4272
:1047600001D1016921B1816A9A421DD052B10BE099
:10477000816A02685268C2F308020A80816A891C51
:10478000816209E002697AB10268526802F07F0230
:104790000A70816A491C8162C18D491E0904090C95
:1047A000C18505D0002010BD026852680A70F0E78C
:1047B0000168CA6822F02002CA600168CA6822F44F
:1047C0008072CA6001684A6922F001024A612021B0
:1047D00080F83A10FDF7C0FF002010BD70B5044608
:1047E00020680169E26821F4405111430161A16828
:1047F00020690143606901432068C26841F20C638B
:104800009A430A43C26020684169A26921F4407159
:10481000114341611E492068884202D1FDF70AFB1D
:1048200001E0FDF7F7FA00EBC00101EB0010616851
:1048300064228900B0FBF1F3B3FBF2F36FF01806CA
:104840007343B0FBF1F5B0FBF1F605EB83053223C2
:1048500003EB0515B5FBF2F5B6FBF2F605F0F00536
:1048600005EB0615B0FBF1F6B0FBF1F0B0FBF2F092
:104870006FF01801484306EB800003EB0010B0FB1B
:10488000F2F0216800F00F002844886070BD00003D
:104890000038014090F83910212901D002207047DA
:1048A0008168B1F5805F01D1016961B1016A4A1C7B
:1048B0000262026809785160C18C491E0904090C22
:1048C000C1840AD013E0016A02680988C1F30801B3
:1048D0005160016A891C0162EEE70168CA6822F032
:1048E0008002CA600068C16841F04001C1600020D8
:1048F0007047000010B5FEF74FF80348FDF7FEFDC6
:10490000BDE81040FEF754B8040E0020FEE7490051
:1049100050EAC12018BF04204A0D18BF40F0010022
:1049200040F2FF72B2EB515F08BF40F00200012875
:1049300008BF052070470907090E002804DB00F1B5
:10494000E02080F80014704700F00F0000F1E02034
:1049500080F8141D70472DE9F0414F1E00EBC70190
:104960000446D1E9000115461E4637F006020DD077
:104970002A46334600F01AFF7F1E04EBC703D3E933
:10498000002300F099FC37F00602F1D1022F25D068
:10499000042F13D0062F18BFBDE8F0812A463346F6
:1049A00000F004FFD4E90A2300F086FC2A463346CF
:1049B00000F0FCFED4E9082300F07EFC2A463346D2
:1049C00000F0F4FED4E9062300F076FC2A463346D4
:1049D00000F0ECFED4E9042300F06EFC2A463346D6
:1049E00000F0E4FED4E9022300F066FC2A463346D8
:1049F00000F0DCFED4E90023BDE8F04100F05CBC2F
:104A0000002213461046014900F012BD0000F03F9D
:104A1000012201F0C2BB002213461046114600F0ED
:104A200007BD30380A2801D20120704700207047A6
:104A30007047000010B5104C012220212046FDF7E0
:104A4000B0F8642000F0C8F8002220212046FDF7CD
:104A5000A8F8642000F0C0F8012220212046FDF7CC
:104A6000A0F8642000F0B8F820460022BDE810400D
:104A70002021FDF796B800000018014010B586B05F
:104A80001148816941F040018161806900F0400076
:104A900001902020029001200390022004900590B4
:104AA0000A4C02A92046FCF763FF47214FF47A70B5
:104AB00000F070FB0648FDF741FC00222021204653
:104AC000FDF76FF806B010BD00100240001801405D
:104AD000AC0C002070B50C461A4E002825D01A499F
:104AE0004000B1FBF0F0401E18490A68D062C8606F
:104AF00009680020486204EB840000016421B0FBD7
:104B0000F1F5641B1148FDF7DDFBA8B200F064F875
:104B10000E48FDF713FC002220213046FDF741F836
:104B2000A0B2BDE8704000F057B80848FDF706FC99
:104B3000002220213046FDF734F82046BDE87040C1
:104B400000F04AB80018014040420F00AC0C0020B1
:104B50007FB50B48D0E905230169C0698DE80E00D7
:104B6000039000246D464FF4FA7635F81400314670
:104B7000FFF7B0FF641CE4B2072CF6D37FBD000042
:104B80004062000810B5084C012220212046FDF7A4
:104B900008F8642000F020F820460022BDE810400C
:104BA0002021FCF7FEBF00000018014009494860C1
:104BB0004FF47A72504301220A804FF0E0210A69D3
:104BC00042F002020A614861086940F00100086190
:104BD000704700002800002070B504460D4800789A
:104BE00000280FD00C48007860B90C4D288884420A
:104BF00003D3B4FBF0F000F017F82888B4FBF0F111
:104C000000FB11444FF47A706043BDE8704000F03F
:104C10000DB800005700002052000020280000209E
:104C2000FDF7F4BEFDF708BFFEF76ABA2DE9F041C3
:104C300000244FF0E0277E6905460C484068454354
:104C4000FFF7EEFFBA69B9699142FCD003D2A2EB3B
:104C50000100044403E0A6EB0100104404440A46AA
:104C6000AC42F0D3BDE8F041FFF7DCBF28000020E4
:104C700004490A685206FCD5024AC1B2121D1160ED
:104C8000704700000038014008B5104AD36943F06E
:104C90000203D361D26902F0020200920D4A0C4B6A
:104CA0001360516000219160D0601046FDF7E4FA76
:104CB000032201211D20FCF7CBFF1D20FCF7BBFFC9
:104CC000BDE808400348FDF7FDBA000000100240AF
:104CD00000040040F40C00202DE9F04100240126DE
:104CE0002A4D002800D02E702878294F98B1012134
:104CF0003846FCF747FFA8B102213846FCF742FFCF
:104D000080B104213846FCF73DFF58B108213846F0
:104D1000FCF738FF30B101213846FCF733FF01289A
:104D20001ED030E00A20FFF757FF00202870012135
:104D30003846FCF727FF00B9012402213846FCF76A
:104D400021FF00B9022404213846FCF71BFF00B9FB
:104D5000032408213846FCF715FFA0B9042412E00B
:104D600002213846FCF70EFF01280CD104213846F9
:104D7000FCF708FF012806D108213846FCF702FF9E
:104D8000012800D12E702046BDE8F0811B000020D4
:104D9000001001402DE9F04DC84A002490B0914226
:104DA00005DA21F00043934201D805D120B110B0BB
:104DB000BDE8F04DFFF72CBEB1F5801F1BDA53EABA
:104DC000000209D0002911DA0120FBF7BAFB10B06C
:104DD000BDE8F04DFFF71FBE0220FBF7B2FBFFF767
:104DE0000FFE10B081F00041BDE8F08D6FF035048A
:104DF000362201F0D2F904EB2152C1F31308B04975
:104E0000A2F2FF33414401F4801282F07F6103EB90
:104E1000225281F04051009241EA08010022A94B40
:104E200000F0CEFD044608F10200A74EC0F31300C7
:104E30000D467E44032867D2D6E90023204600F0C1
:104E40004FFC1ED10098002802BFD6E9000110B027
:104E5000BDE8F08D00F080FC07460C469B4A9C4B59
:104E600000F0A4FC06460D469A4A9B4B3846214664
:104E700000F09CFC10B032462B46BDE8F04D00F02F
:104E80001BBA4FF05532954B2046294600F08EFC58
:104E90000022934B00F088FD06460F4622462B4623
:104EA0001046194600F082FC32463B4600F07EFC7C
:104EB000064600980F46F0B100F04EFC80468A4648
:104EC000824A834B00F072FC32463B4600F06CFD98
:104ED00022462B4600F074FD05460C467D4A7E4B6B
:104EE0004046514600F062FC10B02A462346BDE819
:104EF000F04D00F065BD0B4610B032462046294605
:104F0000BDE8F04D00F05CBD00224FF0804320462C
:104F100000F0D2F902460B462046294600F088FAF6
:104F200006460F46009800F017FCCDE90401324612
:104F30003B461046394600F039FC0C9069480C9A03
:104F40004044019009910B46104600F02FFC824628
:104F5000024665488B46C8F151080B4608F5D7282C
:104F600003217844FFF7F7FC52465B4600F01EFC35
:104F70000A905E480D9152465B4604217844FFF743
:104F8000EAFC099B0C9A00F011FC844601980D9BE9
:104F900040EA080860460A9A00F08EF983460891B4
:104FA000B8F1000F4EDD4FF0FF322046294601F0E8
:104FB000F4F822462B4600F0F9FB804600988A461A
:104FC00060B3DDE90401414A414B00F0EFFB099178
:104FD00000905A4640465146089B00F06DF9324613
:104FE0003B4600F0E3FB099B009A00F065F942465E
:104FF000534600F0D9FC22462B4600F0E1FC044663
:105000000D46DDE90401334A334B00F0CFFB10B00D
:1050100022462B46BDE8F04D00F0D2BC5A46404631
:10502000089B00F049F932463B4600F0BFFB424680
:10503000534600F0B9FC10B022462B46BDE8F04DB7
:1050400000F0B2BC009840B3DDE904011F4A204BD8
:1050500000F0ACFB80468A465A4620462946089B0B
:1050600000F0AEFC32463B4600F0A0FB4246534601
:1050700000F0A6FC22462B4600F0A2FC04460D469A
:10508000DDE90401134A144B00F090FB10B02246F6
:105090002B46BDE8F04D00F093BC0B465A46204627
:1050A000294600F08DFC32463B4600F07FFB10B0F5
:1050B00022462B46BDE8F04D00F076BC0000F07FA4
:1050C000645F09000000F03F62150000763C79350E
:1050D000EF39EA3D0000E0FE422EE63F5555D53F50
:1050E0000000E03F86EBF9FFFA130000F813000020
:1050F00010B5FEF74BFEFDF717FC0A23044A00210A
:105100000448FDF797FDFDF77BFD002010BD000072
:10511000A80C002019450008BFF34F8F054801680F
:10512000054A01F4E06111430160BFF34F8F00BFF6
:10513000FDE700000CED00E00400FA0570B590B04A
:105140000646282106A8FBF7CCF9142101A8FBF795
:10515000C8F9012106910904079100240894022549
:105160000D950E910F9606A8FCF7AEFE00B1FEE776
:105170000F200190029503944FF4806004900594F1
:10518000022101A8FCF796FD002800D0FEE710B030
:1051900070BD000038B5144AD36943F00103D361F0
:1051A000D26902F001020092104C4FF0804222605E
:1051B00061600021A160E0608020A0612046FDF7D1
:1051C0005BF82068C16841F00101C1600222012141
:1051D0001C20FCF73DFD1C20FCF72DFD2046BDE802
:1051E0003840FDF76FB8000000100240AC0C002002
:1051F00010B50B49094A0A60486000208860C86001
:10520000086188610C2048610846FDF701FABDE895
:105210001040012203490248FDF772BA00380140EC
:10522000040E00203000002010B500290AD00878B4
:10523000002807D005487844FBF752FD002801D02C
:10524000002010BD0248784410BD00006612000026
:105250005E12000021F00042A2F16052B2F5801F00
:1052600001F0004328BFD2F17F6C0BD95FEA001C2C
:1052700043EAC20242EB507018BF704728BF20F0CB
:1052800001007047B2F5801FBCBF184670474FEA57
:10529000410C1CF5001F02D2084600F0C6BE70B5D6
:1052A00000F02EFB00000089FFF7F6BF4FF0004032
:1052B000A0F580007047000010B591EA030F48BFC9
:1052C00083F0004300F18483841A71EB030C05D250
:1052D000121943EB0C03001B61EB0C01DFF824E116
:1052E0004FEA1154A4EB135C1EEA430F18BF9EEA69
:1052F000445F73D023EA0E03DCF1200E21EA04514F
:1053000043F4801332D322FA0CFE10EB0E0023FA82
:105310000CFE41EB0E01CCF1200E03FA0EFE10EB59
:105320000E0051F10001B1F5801FCCF1200E32D2F8
:1053300001EB045112FA0EF2BDE8104058BF70475D
:10534000401C38BF5FEA420218BF7047002814BFF4
:1053500020F0010041F100014FEA410313F5001F65
:1053600038BF7047A1F1C04100F018BB012A43EBE0
:105370000302ACF1200CDCF11F0E32BF4FF0000E27
:1053800023FA0CF310EB030041EB0451B4EB115F73
:10539000D0D0A1EB045101F5801149085FEA30003B
:1053A00001EB04510ED350F1000038BF12FA0EFE8B
:1053B00008D1BDE81040C9E7401C38BF5FEA42028F
:1053C000CAD1C3E7BDE810404FEA410313F5001FFF
:1053D00038BF7047A1F1C04100F0E0BA9EEA445FD7
:1053E00008D011EA5E0FBDE8104004BF01F0004193
:1053F00000207047BDE8104070B500F081FA00BF92
:1054000064FBBE3E0000E0FF02494FF0000000F0E8
:1054100092BE00BF0000F87F491058BFC1F1404163
:105420005B1058BFC3F140438B42EFF300807047DD
:105430002DE9C04130B4DFF8A0C23CEA111418BF16
:105440003CEA131400F0EC8081EA03051CEA111415
:1054500044EAD57418BF1CEA131500F0C780A4EB0A
:1054600005044FF0004545EAC12145EAC32341EA5E
:10547000505143EA525304F17F74994204F50034C9
:105480004FEAC0204FEAC22208BF904200F09C8041
:105490004FEA13650FF24016765D4FEA134506FB9F
:1054A00005F7C7F1807706FB07F74FEAD737A7FB69
:1054B00003687642C8F58038A7FB06CE38BFA8F14E
:1054C000010807FB08E64FF0000EA6FB028CE6FB86
:1054D00003CEDCF1000CCEF1004E38BFAEF1010E70
:1054E000A6FB0C584FF000074FF00005E6FB0E87B7
:1054F000A1FB08C6A0FB07CE16EB0E0645F1000582
:10550000E1FB076515F1E04E7EBFA4F580345FEA4C
:1055100046066D4116F1800745F100054FEA172751
:105520004FEA066647EA0567A6F1DE46B6F1805FF8
:105530004FEA15251FD9384624F0010C05EBC4713C
:10554000BCF1FE6F01EB0C1102D8F0BCBDE800818C
:1055500024425CBF01F5801E9EEAC47F02D4F0BCE9
:10556000BDE80081244238D4F0BCA1F1C041BDE8BF
:10557000004100F013BA4FEAD22242EA43524FEA06
:10558000D323A7FB02864FEAD02040EA415007FB15
:1055900003661EEA0E0F4FEAD12105FB026658BFD3
:1055A000A6EB0056B6EB00564FEA520E4EEAC37E0B
:1055B00018EB0E0E56EB530EBDD518EB02085E41EC
:1055C0007F1C55F10005B6E74FF480154FF000073A
:1055D0004FF000064FF00008ADE7F0BC4FF00000C0
:1055E00001F1C04101F00041BDE8008111EA0C1F4A
:1055F0000CEA131500D00CE013EA0C1F00F0258014
:105600004FF00000F0BC81EA030101F00041BDE869
:105610000081F0BCBDE8004181EA030100F0BEB9A1
:10562000F0BCBDE8004170B500F06AF9097EFC3EAF
:1056300000F007B881EA03014FF0000001F00041DB
:10564000704781EA030100F0A9B9F0BCBDE8004150
:105650004FF0000021497047FFFDFBF9F7F5F4F228
:10566000F0EEEDEBE9E8E6E4E3E1E0DEDDDBDAD8FD
:10567000D7D5D4D3D1D0CFCDCCCBCAC8C7C6C5C45B
:10568000C2C1C0BFBEBDBCBBBAB9B8B7B6B5B4B372
:10569000B2B1B0AFAEADACABAAA9A8A8A7A6A5A45D
:1056A000A3A3A2A1A09F9F9E9D9C9C9B9A99999821
:1056B0009797969595949393929191908F8F8E8EC4
:1056C0008D8C8C8B8B8A8989888887878685858451
:1056D00084838382828181800000FF070000F87F3D
:1056E00051EA030C17D41CF5801F58BFBCF5801F6E
:1056F00000F10680994218BF704708BF904270477A
:1057000007D711F5801F58BF13F5801F19D4994290
:105710007047894270471CF5801F08D5BCF5801F73
:10572000F7D58B4218BF704708BF824270474FF4CD
:10573000001C1CEB410F38BF1CEB430F01D28B4206
:10574000704770B500F0DCF8922449004FF000512A
:105750004FF08053FFF760BE10F0004248BF404258
:10576000B0FA80F310FA03F10AD0C3F11D0303F578
:1057700080634FEA415002EB035202EBD1217047A4
:105780004FF000007047B0FA80F310FA03F10AD02E
:10579000C3F11D0303F580634FEA41504FEA035202
:1057A00002EBD12170474FF000007047DFF848C18D
:1057B00070B51CEA111E1EBF1CEA13159EEA0C0FE1
:1057C00095EA0C0F00F06F8081EA030423EA4C1382
:1057D0004EEAD47E21EA4C1141F4801143F4801347
:1057E000AE44A1FB024CA0FB0365AEF17F7E3619EF
:1057F00055EB0C05A1FB034C4CF10003A0FB021C74
:1058000016EB0C06654153F10003094218BF46F040
:10581000010613F4007F0BD14FEA03314FEA053044
:10582000340341EA155140EA16506FF003020AE0D2
:105830004FEAC3214FEAC520F40241EA555140EA3C
:1058400056506FF0020202EB2E4201EB025585EA40
:10585000CE710AD05FEA440C18BF24F0004450F126
:10586000000041F1000120EAD47040F2FE7C624564
:1058700000D270BDA84214BF4FF080444FF04044A6
:10588000002E08BF0024BEF1806FA8BFA1F1C04167
:10589000BDE8704080F282804FF0000001F1C0410D
:1058A00001F0004170479EEA0C0F0CEA131518BF77
:1058B00095EA0C0F06D04FF0000081EA030E0EF0BF
:1058C000004170BD00F01CF88900013E00F007B8EF
:1058D00000F009B84FEA430C5FEA5C5C08D081EA4B
:1058E000030100F05BB84FEA410C5FEA5C5CF6D163
:1058F0004FF00000014970470000FF070000F87FEB
:105900000EF1020E2EF0030E5EF8046B364205D443
:10591000012A43EB030515F5001F12D8012841EBBE
:10592000010C1CF5001F0CD80ED14FEAD17C15F5E7
:10593000001F0CEB4C0C0CF1020C08BF4CEBD37CA1
:1059400004E04FF0080C01E04FEAD37C0CEB4C056F
:1059500026FA05F606F00706B6F1040C06D20EEBA1
:10596000860CBDE870404CF0010C6047DFE80CF09D
:10597000090B02024FF000414FF00000A1F5002199
:1059800070BD19461046012851EB010418BFD4F52B
:10599000001484BF002001F0004170BD0808A0F58C
:1059A00000114FEA3101704791EA030F10B581F001
:1059B00000413FF589AC83F0004300F009B80000D6
:1059C00010B591EA030F48BF83F000433FF57CAC6C
:1059D000841A71EB030C07D212198CF0004C43EBC4
:1059E0000C03001B61EB0C01DFF8A4E14FEA11543A
:1059F000A4EB135C1EEA430F18BF9EEA445F00F05D
:105A0000B08023EA6E03524221EA0451C3EB6E03D5
:105A100038BF5B1EDCF1200E25D322FA0CFE10EB02
:105A20000E0043FA0CFE41EB0E01CCF1200E03FAFE
:105A30000EFE10EB0E0051F10001CCF1200E29D426
:105A400012FA0EF201EB0451BDE8104058BF704746
:105A5000401C1CBFB2F1004F704700280CBF491C0E
:105A600020F00100704712EB020E43EB030218BF57
:105A70004FF0010E4EEA4202ACF1200CDCF11E0E9A
:105A800054D943FA0CFE10EB0E0051F1FF31CCF16A
:105A90001E0ED5D50EF1010E12FA0EFE404141EB5D
:105AA000010101EB445C5FEA5C5C10D910EBDE7035
:105AB00001EB045138BFBEF1004FBDE8104018BFE4
:105AC000704700280CBF491C20F00100704730D2FD
:105AD0004FEAD42C11F5001124F400641BD0B1FA64
