:020000040800F2
:1000000058280020ED0100088B250008BF240008B7
:100010008925000869160008194200080000000040
:10002000000000000000000000000000693A000825
:100030006B16000800000000BD020008913A00089D
:10004000070200080702000807020008070200086C
:10005000070200080702000807020008070200085C
:10006000070200080702000807020008070200084C
:10007000070200080702000807020008070200083C
:10008000070200080702000807020008070200082C
:10009000070200080702000807020008070200081C
:1000A000070200080702000807020008070200080C
:1000B000E93B0008213C000807020008070200088D
:1000C00007020008070200080702000807020008EC
:1000D00007020008014200080702000807020008A2
:1000E00007020008070200080702000807020008CC
:1000F00007020008070200080702000807020008BC
:1001000007020008070200080702000807020008AB
:10011000070200080702000807020008070200089B
:10012000070200080702000807020008070200088B
:1001300000F002F800F04AF80AA090E8000C8244AF
:100140008344AAF10107DA4501D100F03FF8AFF28C
:10015000090EBAE80F0013F0010F18BFFB1A43F0A5
:10016000010318476C5900008C590000103A24BF55
:1001700078C878C1FAD8520724BF30C830C144BF0C
:1001800004680C607047000000230024002500264E
:10019000103A28BF78C1FBD8520728BF30C148BFEA
:1001A0000B607047662905F0FC82642900F0D68058
:1001B000002070471FB500F045FC0400002000211E
:1001C00004F06AFBE0601FBD10B510BD00F05AFDE1
:1001D0001146FFF7EFFF04F0F1FA00F078FD03B4E9
:1001E000FFF7F2FF03BC04F0A9F8000009488047BC
:1001F00009480047FEE7FEE7FEE7FEE7FEE7FEE709
:10020000FEE7FEE7FEE7FEE704480549054A064B20
:1002100070470000A93B0008310100085822002067
:1002200058280020582400205824002072B602B418
:10023000EFF3118180F31188BFF34F8FBFF36F8FFE
:10024000084602BC62B6704772B680F31188BFF3ED
:100250004F8FBFF36F8F62B6704772B630484FF062
:10026000FF010170002080F309882E48016881F3A6
:10027000088802F0A1FD2C48012101702B482C496F
:100280000A7802702B482C490A680260106880F3D3
:100290000988EFF3148040F0020080F31488BFF364
:1002A0006F8FBDE8F04F0FBCBDE8005006BC62B6D2
:1002B000084722484FF080510160704772B640F203
:1002C0004802C2F20002116881F31188BFF34F8F18
:1002D000BFF36F8F62B6EFF3098020E9F04F154D41
:1002E00029680860744602F067FD104810490A78D2
:1002F000027011490A682A6044F0040E1068B0E8E0
:10030000F04F80F3098840F20002C0F2000272B69A
:1003100082F31188BFF34F8FBFF36F8F62B67047C0
:1003200022ED00E044000020530000205000002097
:10033000510000206C0000207400002004ED00E05B
:10034000704700000FB4044910B503AA029800F0EA
:1003500067FB10BC5DF814FB300000202DE9F04174
:100360000646002410687529314616A510D0AFF353
:100370000080002802DA404213A507E031688A07AE
:1003800001D512A502E0490704D511A5012401E019
:10039000AFF3008000210A2206F1240709E0B0FB38
:1003A000F2FCB0FBF2F302FB1C003030785418462C
:1003B000491C0028F3D123462A463046BDE8F041C7
:1003C00000F0C5B8000000002D0000002B00000068
:1003D000200000002DE9F0474FF0000A894604464E
:1003E000C0F820A02046E1688847002876D025285C
:1003F00006D0D4E901219047206A401C2062F1E731
:10040000E168204600258847C4F81CA0064600275E
:10041000C4F818A02A2E09D0304603F088FF38B35C
:1004200004EB8708303EC8F8186019E059F8041B3F
:10043000204604EB87029161E1688847012F064658
:1004400018D1E069002820DA25F020051DE0D8F851
:10045000180000EB800006EB40003038C8F81800A8
:100460002046E1688847064603F061FF0028EED188
:10047000012F0AD02E2E08D12046E16888477F1C24
:100480000646022F45F02005C4DBA069002803DAE8
:10049000404245F00105A061E80701D025F01005B4
:1004A000B6B1A6F14100192802D8203645F40065FE
:1004B0004A463146204625604D46FFF773FE58B147
:1004C000012806D0ED1D25F0070000F1080989E795
:1004D00004E005F1040985E730468AE7206ABDE8B3
:1004E000F0874FF0000200B5134694469646203937
:1004F00022BFA0E80C50A0E80C50B1F12001BFF4DD
:10050000F7AF090728BFA0E80C5048BF0CC05DF842
:1005100004EB890028BF40F8042B08BF704748BF90
:1005200020F8022B11F0804F18BF00F8012B704704
:10053000704770477047704710B500F087FA006841
:1005400010BD10B5044600F081FA046010BD2DE91D
:10055000F0470D4699469246044600F1240801688A
:10056000880604D5E06921F01001216000E0012037
:10057000A84201DD471B00E00027A1697A1902EBC0
:100580000900081AA0612078C00602D42046AFF303
:100590000080002608E0D4E901211AF806009047FF
:1005A000206A401C761C20624E45F4DB2078C00691
:1005B0000AD52046AFF3008006E0D4E901213020BF
:1005C0009047206A401C2062381EA7F10107F4DC26
:1005D00007E0D4E9012118F805009047206A401C83
:1005E0002062281EA5F10105F3DC2046AFF3008050
:1005F0002078000602D50220BDE8F0870120FBE745
:1006000070472DE9FF4F0C461E464FF0FF378BB069
:10061000D2E90001DDF860800A908A46C1F30A55EC
:1006200005B93D46002108464FF00000BAF1000F21
:1006300000F4400005DA00EB80004FF4400101EACD
:1006400050004FEA9059B9F1010F00DDB9460A9800
:1006500050EA4A000ED044F61050A5F2FF3545434B
:100660002F14B8F1000F1ED07542291E1EDDC9F1EE
:1006700000021CE0B8F1010F4FF0000001D0302162
:1006800003E0F24305E02154401CB042FBDB30465E
:100690000022002121540B99C1F80880C1E90020F3
:1006A0000FB0BDE8F08FBD1B6D1CDEE74A4600DAD7
:1006B000694206A800F06CFA06AB93E8070003ABAA
:1006C00083E8070050460A9900F04AFB8DE80700CE
:1006D000A0F500501F3800900398002D0ADD42F26B
:1006E0001F014A460844002303A90390684600F00E
:1006F000B3FD09E0A0F500504A461F38002303A9C6
:100700000390684600F0BDFD8DE807000004000C72
:1007100003D04FF0FF30410800E01046B8F1000F61
:1007200003D00022009215461EE0751E05D400F08D
:1007300091F9303262556D1EF9D5B3460122084356
:1007400002D000227F1C04E02078302801D1002252
:100750007F1E002A099784D01DE0112D07DA00F0D2
:1007600079F9303262556D1C50EA0102F5D1084327
:1007700002D00098C8B10EE00021681E05E0235C9D
:10078000625C63542254401E491C8142F7DBAB4635
:10079000A81B401E0990002004F80B000B98099A32
:1007A000C0F80880C0E9002B7AE711264FF0000856
:1007B00057E72DE9F04F88460446D21D22F0070185
:1007C00091B0D1E90001CDE90A0103F026FD02460E
:1007D0000B98C00F01D02D2007E02068810701D5BC
:1007E0002B2002E0202101EAC000032A099001D059
:1007F000072A05DB03464146204600F089F90BE154
:100800002078800601D5E06900E00620B8F1650F88
:10081000814606D0B8F1660F18D0B8F1670F70D1D5
:1008200031E00020B9F1110F009001DB112301E04C
:1008300009F101030AAA01A90CA8FFF7E2FEDDE90C
:100840000C70002609F10105834647E001204B4664
:1008500000904FF000470AAA01A90CA8FFF7D1FEAB
:10086000DDE90DB00C995D46002610B909F10100D3
:100870000D18B9EB050003D4C0F1FF3609F10105ED
:10088000A5EB09002BE0B9F1010F01DA4FF00109E6
:100890000020B9F1110F0090484601DD112300E05E
:1008A00003460AAA01A90CA8FFF7ABFEDDE90C700C
:1008B0004D4600268346207800070AD4AB4500DA6F
:1008C0005D4601A8012D04DD411911F8011C3029F4
:1008D00007D04F4502DA17F1040F04DA01208246EF
:1008E0000FE06D1EEEE7002F02DCED1B3E4403E03F
:1008F000781CA84200DD7D1CB81B00F1010A4FF0F6
:1009000000472078000703D4AA4501DB4FF0FF3AE7
:100910000021B7F1004F0DF143088DF8431024D0AA
:1009200002202B23002F01DA7F422D230A21021EF1
:10093000A0F1010000DC5FB197FBF1FC97FBF1F245
:1009400001FB1C7C17460CF1300C08F801CDEEE7DA
:10095000A8F1010003702188090501D5452100E0B7
:100960006521A0F1010800F8011C09980FA9A1EB6D
:100970000807FF1D00B10120411901EBEA70A169D0
:100980003844081A401EA0612078C00602D42046D0
:10099000AFF30080099828B1D4E901219047206A7B
:1009A000401C20622078C00622D52046AFF300808C
:1009B0001EE0002E04DBB34502DD01A8805D00E0EF
:1009C0003020D4E901219047206A401C2062761C27
:1009D000AAF101005FEA000A0AD100F033F8C0680A
:1009E0000168405CD4E901219047206A401C2062E4
:1009F000281EA5F10105DCDC07E0D4E9012118F887
:100A0000010B9047206A401C2062381EA7F10107A5
:100A1000F3DC2046AFF30080032011B041E6000074
:100A2000074B70B50D467B4400F05FF8044628463E
:100A300000F020F910B14FF0FF3070BD204670BDBE
:100A40001F3A0000004870471822002000487047F5
:100A5000F821002030B5B0F10A024FEA900E71F192
:100A600000034EEA817EB0EB0E0061EB91014FEA8C
:100A7000101E4EEA017E10EB0E0041EB11114FEA01
:100A8000102E4EEA016E10EB0E0041EB11214FEAE1
:100A9000104E4EEA014E10EB0E0041EB1141401892
:100AA00041F100014FEAD00040EA41704FEAD10124
:100AB00010EB80054FEA810444EA907444EB010492
:100AC0006D1944EB0404521BA3414FF0000348BFCF
:100AD0000A3200D530BD401C41F1000130BD00009C
:100AE00001694A1C02610878704700B58FB0CDE9F2
:100AF00001310021059105497944CDE903101146E2
:100B00006846FFF767FC0FB000BD0000E5FFFFFF80
:100B10002DE9F0411F46044603260168072A01F427
:100B2000006004DB08B116A505E016A503E008B1D6
:100B300015A500E015A521F010002060A069C01ED9
:100B4000A0610FB1401EA0612046AFF300804FB1FD
:100B5000D4E9012138469047206A401C2062C01C1D
:100B6000206206E0206AFAE7D4E9012115F8010BBA
:100B70009047761EF8D22046AFF30080BDE8F081A2
:100B80004E414E006E616E00494E4600696E660031
:100B90002DE9F047814616468AB0354878440DC89D
:100BA0008DE80D0032487844801C03AC0DC884E801
:100BB0000D0041F69B300844372190FBF1F290FB89
:100BC000F1F5A5F1800501FB12041B3C02D564423E
:100BD000012000E00020DFF898A080460027FA44BA
:100BE000AAF1BE0A0EE0E0070AD03246684607EBDB
:100BF000470101230AEB810100F043FB8DE8070068
:100C000064107F1C002CEED1194F7F44AE3F19E0D9
:100C1000E80715D007EB04100DF1180A90E80E0054
:100C20008AE80E00C068F04201D198190890324657
:100C3000012306A903A800F024FB03AB83E8070007
:100C40006D10641C002DE3D14FF00103324669465C
:100C5000B8F1000F03A802D000F0FEFA01E000F0A6
:100C600010FBC9E90001C9F808200AB0BDE8F08707
:100C7000CC4E0000007B00F08000704700487047B9
:100C8000F82100207546FFF7F9FFAE4605006946DA
:100C9000534620F00700854618B020B5FFF7B4FA98
:100CA000BDE820404FF000064FF000074FF000086D
:100CB0004FF0000B21F00701AC46ACE8C009ACE8EE
:100CC000C009ACE8C009ACE8C0098D46704710B552
:100CD0000446AFF300802046BDE81040FFF77FBA1E
:100CE0004FF0013C50F8042B51F8043B9A4221D1BB
:100CF000A2EB0C03934313EACC1317D150F8042B47
:100D000051F8043B9A4215D1A2EB0C03934313EA2A
:100D1000CC130BD150F8042B51F8043B9A4209D163
:100D2000A2EB0C03934313EACC13DBD04FF000008B
:100D3000704700BFD01A01BAB1FA81F101F0180171
:100D400022FA01F0CB40C1F12001DBB2C0B2C01ADF
:100D50002CFA01F3D11A914311EAC311E6D170477D
:100D60005FEA400C08BF91F0000F4FEA8C234FEA76
:100D7000C12243EA51514FEA1C5018BF00F5F04020
:100D80004FEA300018BF41F000415FEA6C5C00F0B0
:100D90002980BCF1FF3F08BF40F080407047130C32
:100DA00006BF12044FF0100C4FF0000C130E04BFDE
:100DB00012020CF1080C130F04BF12010CF1040C09
:100DC000930F04BF92000CF1020CD30F04BF52002A
:100DD0000CF1010C11464FF00002A0F11F00A0EB36
:100DE0000C00704711F0004F08BF704731F0004110
:100DF0003FF4D5AF0B0C06BF09044FF0100C4FF0B9
:100E0000000C0B0E04BF09020CF1080C0B0F04BF01
:100E100009010CF1040C8B0F04BF89000CF1020CCA
:100E2000CB0F04BF49000CF1010CCCF12003A0EB67
:100E30000C0022FA03F302FA0CF241EA030100F17A
:100E40000100704720F07F4C80EA030023F07F47C9
:100E5000ACEB070303F57C5300F0004003F1FF0304
:100E60002DE980494FEA154B09B44FEA144325EAAE
:100E70000B4E24EA03480FF2042606EB1327490819
:100E80003E785FEA320203FB0667C7F5000707FBFF
:100E900006F64FEA54374FEAD64606F1020607FB3C
:100EA000066CCCF1005C4FEA1C472CEA074C07FBB0
:100EB00006F40CFB06F504EB15464FEA961634BF14
:100EC00000204FF000404FEAD13706FB07FC4FEA05
:100ED0001C4C0CFB0BF7D21B03FB0CF761EB07015F
:100EE0000CFB0EF7B0EB074072EB17420CFB08F758
:100EF00034BFA2EB0742B2EB074261EB17414FEA66
:100F00000C444FEA910706FB07FC4FEA1C4C0CFB14
:100F10000BF7B0EBC74072EB573203FB0CF734BF53
:100F2000A2EBC742B2EBC74261EB57310CFB0EF7A5
:100F3000B0EBC70072EB57720CFB08F734BFA2EBA3
:100F4000C702B2EBC70261EB5771039F4FEA8161A1
:100F500041EA921104EBCC044FEAD1374FEA8262A6
:100F600006FB07FC42EA90124FEA80604FEA1C4CF5
:100F70000CFB0BF7D21B03FB0CF761EB07010CFB1F
:100F80000EF7B0EB074072EB17420CFB08F734BFCB
:100F9000A2EB0742B2EB074261EB17414FEA8C55D7
:100FA0004FEA910704EB9C2406FB07FC4FEA1C4C1C
:100FB0000CFB0BF7B0EBC74072EB573203FB0CF79F
:100FC00034BFA2EBC742B2EBC74261EB57310CFB17
:100FD0000EF7B0EBC70072EB57720CFB08F734BF8B
:100FE000A2EBC702B2EBC70261EB577115EB4C25C0
:100FF0004FEA816141EA92114FEA82624FEAD137AA
:1010000042EA901206FB07FC44F100044FEA8060BC
:101010004FEA1C4C0CFB0BF7D21B03FB0CF761EBEC
:1010200007010CFB0EF7B0EB074072EB17420CFB0D
:1010300008F734BFA2EB0742B2EB074261EB17415E
:1010400015EB1C154FEA813141EA92414FEA823299
:1010500042EA90424FEA80304FEA0C7644F10004B5
:1010600048EA03434EEA0B484FF0000EB2EB080C7F
:1010700071EB030724BF624639464EEB0E0E4FF06C
:10108000000B0018524149414BEB0B0BB2EB080C23
:1010900071EB03077BF1000B24BF624639464EEB30
:1010A0000E0E4FF0000B0018524149414BEB0B0B59
:1010B000B2EB080C71EB03077BF1000B24BF624617
:1010C00039464EEB0E0E51EA020718BF46F00106F4
:1010D00016EB0E7655F1000254F1000103D5BDE880
:1010E0008901BDE80088BDE88901BDE80048B6195E
:1010F000524141EB0101A3F10103704780807F7EE3
:101100007D7C7B7A7978777676757473727171707D
:101110006F6E6E6D6C6C6B6A6A696868676666652F
:101120006464636362616160605F5F5E5E5D5D5CBD
:101130005C5B5B5A5A59595858575756565555552E
:101140005454535352525251515050504F4F4F4E8E
:101150004E4D4D4D4C4C4C4B4B4B4A4A4A494949DC
:10116000484848474747474646464545454444441E
:10117000444343434342424242414141002B9C4647
:1011800030D477002BD01CB54FEA370703B44FF0AB
:1011900010004FF01001BAF1000F06D0BCF1000FA3
:1011A000DCBF40F0080040F008014FF000000FBC29
:1011B000BDE810400BF1010BBBF1010F08BF5FEA66
:1011C000170722BF12F1010211F101014FF0004196
:1011D00043F1000300F0004043EA00007047F9D3F8
:1011E0005708D0E746EA064613F1400F4FEA164685
:1011F0001FDD13F1200FDFBF16430A460021203305
:101200005B42BED0C3F1200746EA064602FA07F762
:101210004FEA164646EA0706C3F1200722FA03F210
:1012200001FA07F721FA03F14FF0000342EA07023F
:10123000A7E746EA020646EA06464FEA164646EAA7
:101240000106BCBF46EA0646360C4FF000034FF0DD
:1012500000024FF0000194E72DE9804C9A46934636
:1012600070B491E8380007C831EA400C48BF34EA4E
:10127000430C03D5FFF7E6FDFFF780FFF0BCBDE8A8
:10128000008C2DE9804C9A46934670B491E8380062
:1012900007C810F0804F08BF13F0804F03D100F053
:1012A00005F8FFF76BFFF0BCBDE8008C20F07F472E
:1012B00080EA030023F07F4C07EB0C03A3F57C537B
:1012C00000F00040A3F1FE0392F0000F00F0B380A5
:1012D00095F0000F00F077802DE901494FEA1140A9
:1012E0004FEA144621EA004800FB06FC24EA0647C0
:1012F00008FB06F607FB08F800FB07F718EB0648A3
:101300004CEB164C4FEA124B18EB07484FEA1546C8
:101310004CEB174022EA0B4E0BFB06FC25EA064776
:101320000EFB06F607FB0EFE0BFB07F71EEB064E49
:101330004CEB164C4FF000061EEB074E4CEB174BD8
:1013400018EB0B0840F1000018EB0E0B58EB0008EF
:1013500040F100008F1A4FF000013CBFC943661BEB
:1013600014BFB5EB040C00213CBFC943F61B4FEA88
:1013700017444EEA8E0E27EA04454FEA1C4704FB49
:1013800007622CEA074C05FB07F70CFB05F604FB8C
:101390000CFC16EB074642EB174216EB0C4642EBF1
:1013A0001C421BEB060658EB0202414146EA9E0630
:1013B00001D5BDE80189B619524141EB0101A3F104
:1013C0000103BDE801894FEA14454FEA114724EAB9
:1013D000054621EA074C05FB07F406FB07F70CFB63
:1013E00006F105FB0CFC11EB074144EB17444FEAF7
:1013F000124711EB0C4144EB1C4422EA074C05FB5D
:1014000007F206FB07F70CFB06F605FB0CFC16EBD8
:10141000074642EB174216EB0C4642EB1C456A1896
:1014200054F1000148BF7047B619524141EB010128
:10143000A3F10103704795F0000F37D04FEA114236
:101440004FEA144721EA024624EA074C02FB07F15F
:1014500006FB07F70CFB06F402FB0CFC14EB07443D
:1014600041EB17414FEA154714EB0C4441EB1C418B
:1014700025EA074C02FB07F506FB07F70CFB06F60F
:1014800002FB0CFC16EB074645EB174516EB0C462A
:1014900045EB1C42121951F1000148BF7047B619C3
:1014A000524141EB0101A3F1010370474FEA14459A
:1014B0004FEA114724EA054621EA074C05FB07F1EC
:1014C00006FB07F70CFB06F24FF0000605FB0CFCD1
:1014D00012EB074241EB174112EB0C4251EB1C415E
:1014E00048BF7047921841EB0101A3F10103704717
:1014F0002948816941F400718161C16841F400713A
:10150000C160C16821F40071C16024480168244AA7
:101510001140016001680160016821F4807101607F
:10152000001D016821F002010160016821F46021C1
:101530000160016841F460210160016841F480119B
:101540000160016821F400610160144928310A68D2
:1015500022F470020A600A6800220A600F490C3106
:101560000A6822F00F020A600A6842F007020A6065
:10157000016841F001010160016841F0080101606A
:1015800001680907FCD4016841F0040101600168A9
:101590004907FCD4704700000010024004240140B9
:1015A000FFFFF0002948816941F480618161C168D1
:1015B00041F48061C160C16821F48061C160244848
:1015C0000168244A1140016001680160016821F44A
:1015D00080710160001D016821F002010160016855
:1015E00021F460210160016841F46021016001681B
:1015F00041F480110160016821F400610160144927
:1016000028310A6822F470020A600A6800220A601F
:101610000F490C310A6822F038020A600A6842F069
:1016200038020A60016841F001010160016841F07F
:101630000801016001680907FCD4016841F0040158
:10164000016001684907FCD47047000000100240A7
:1016500004280140FFFFF000704770477047704753
:101660007047704770477047FEE77047024600209A
:10167000012A19D0022A16D11748026822F01F0247
:10168000026002680A43026013482C38016841F482
:10169000800101601048343801688907FCD50E4884
:1016A0001830006880B270470C48026822F01F02B0
:1016B000026002680A43026008482C38016841F45D
:1016C000800101600548343801688907FCD503486A
:1016D0001830006880B2704734280140342401403B
:1016E00001460120FFF7C2BF2DE9F0410F2000F0B5
:1016F0005FF803F080FB4FF066342246214B03F085
:101700008DFB03F0DFF80746384603F07BFD2246E9
:101710001D4B03F081FC1D4E04460D4631463846F4
:1017200003F0F4FE03F06EFD22462B4603F0B8F9F9
:101730000022174B03F0B4F903F0C4F8154903F085
:10174000E5FE314603F0ECFD03F05CFD02F088FE9F
:1017500003F0B8F8104903F0E3FD03F053FD0F4A1E
:101760000F4B03F0E1F802460B4600200D4903F051
:1017700097F90D4A0D4B03F05BFCBDE8F04103F017
:10178000A1B8000066664A3F66660A4000401C46F3
:1017900000408F4000007A4400E07645649E227845
:1017A000A5796B3F0000F03FC3F5285C8F127140B4
:1017B00001460120FFF75ABF2DE9F05F002590F8A0
:1017C0002110022903D004218163012595E00168DD
:1017D0000A6822F00E020A6001680A6822F001021B
:1017E0000A60474E464FB215DFF814C1DFF810818A
:1017F000DFF80C91DFF808A1DFF804B10168783F49
:1018000013011402ACF1640CA8F15008A9F13C09D1
:10181000AAF1280AABF1140B4FF4801EB1422FD964
:10182000B94201D1012227E0614501D1102223E014
:10183000414521D0494501D11A461DE0514501D10C
:10184000224619E0594501D1724615E02D4EB142AC
:1018500001D1012210E02B4E1436B14201D11022E9
:101860000AE0284E2836B14206D0264A3C32914240
:1018700001D11A4600E022462249091F0A6033E0DE
:10188000B94201D101222CE0614501D1102228E0AA
:10189000414526D0494501D11A4622E0514501D1A2
:1018A00022461EE0594501D172461AE0B14202D1EA
:1018B0004FF0807215E0134EB14201D1012210E0C9
:1018C000104E1436B14201D110220AE00D4E2836D6
:1018D000B14206D00B4A3C32914201D11A4600E097
:1018E0002246074980394A60012180F821100021F1
:1018F00080F82010416B01B188472846BDE8F09F71
:1019000080000240080402402DE9F84F0024002323
:10191000DFF8E0914FF00F0809F1040A0AF1040B17
:101920000BF1040EDFE00127A7403A40BA4275D11F
:10193000DFF8C4C14D68A5EB0C0665452BD00DDC66
:10194000032D34D005DC35B3012D19D0022D2FD154
:101950001BE0112D16D0122D2AD119E0B6F5881FE3
:1019600019D006DCB6F5803F15D0B6F5801F1FD123
:1019700011E0B6F5001F0ED0B6F5041F18D10AE02D
:10198000CB6815E0CB681B1D12E0CB6808330FE075
:10199000CB680C330CE08B6823B1012B04D00823F7
:1019A000476105E0042303E00823076100E000230A
:1019B000FF2A01D8054601E000F1040502D84FEAEC
:1019C000840603E0A4F108064FEA86062F6808FAA9
:1019D00006FC27EA0C0703FA06F647EA06072F601B
:1019E0004D68ED007ED5454DAE6946F00106AE610D
:1019F000AD6905F001050095414D24F00306771906
:101A0000BE68A5072D0F08FA05FC26EA0C06DFF8CC
:101A1000F4C0604503D14FF0000C25E062E0DFF830
:101A2000E8C0604502D14FF0010C1DE0DFF8DCC0DA
:101A3000604502D14FF0020C16E0DFF8D4C06045DB
:101A400002D14FF0030C0FE0DFF8C8C0604502D1AF
:101A50004FF0040C08E0DFF8C0C0604502D14FF041
:101A6000050C01E04FF0060C0CFA05FC4CEA060CE4
:101A7000C7F808C04D68ED0305D5D9F800501543E7
:101A8000C9F8005004E0D9F800509543C9F8005057
:101A90004D68AD0305D5DAF800501543CAF800507B
:101AA00004E0DAF800509543CAF800504D68ED02A2
:101AB00005D5DBF800501543CBF8005004E0DBF807
:101AC00000509543CBF800504D68AD0205D5DEF8C7
:101AD00000501543CEF8005004E0DEF80050954366
:101AE000CEF80050641C0A6832FA04F57FF41BAF8C
:101AF000BDE8F88F00040140000011100010024002
:101B00000000014000080140000C014000100140AD
:101B10000014014000180140001C0140002A01D0BF
:101B20000161704709040161704700000148806845
:101B30007047000034000020024881680278114498
:101B4000816070473400002010B50748016841F0FB
:101B500010010160052000F059F80F2000F006F890
:101B600000F026F8002010BD0020024070B50446A9
:101B70000D4D4FF47A712878B1FBF0F00B490968EC
:101B8000B1FBF0F000F020FB08B1012070BD102C7B
:101B900007D200222146501E00F018F86C60002089
:101BA00070BD012070BD000034000020080000203E
:101BB0007047002809DB00F01F0201219140400915
:101BC000800000F1E020C0F800117047F0B40D462D
:101BD0000D4B1B68C3F30223C3F10704042C00D987
:101BE0000424191D072901D2002300E0DB1E012671
:101BF00006FA04F1491E294099409E40761E16407F
:101C00003143F0BC02F01DBB0CED00E000F0070119
:101C1000054A10684FF6FF03184040EA01200349C7
:101C200008431060704700000CED00E00000FA056A
:101C30002DE9F04704460D46002C17D0DFF830811F
:101C4000D8F8000000F00700A84211D2D8F8000030
:101C500020F007002843C8F80000D8F8000000F082
:101C60000700A84204D00120BDE8F0870120FBE76F
:101C70002068404E810712D5400703D5706840F4B4
:101C8000E06070602078000703D5706840F4605011
:101C900070607068A16820F0F000084370602078E0
:101CA000C0072CD06068012806D0022809D031680E
:101CB00089070BD40120D7E73168890306D40120B6
:101CC000D2E73168890101D40120CDE7716821F0A4
:101CD000030101437160FFF729FF074641F288398C
:101CE00006E0FFF723FFC01B484501D90320BBE7EF
:101CF0007068616800F00C00B0EB810FF1D1D8F88A
:101D0000000000F00700A8420ED9D8F8000020F02B
:101D100007002843C8F80000D8F8000000F00700CA
:101D2000A84201D001209FE72078400705D57068C0
:101D3000E16820F4E060084370602078000706D571
:101D40007068216920F4605040EAC100706000F0C2
:101D50003FF87168084AC1F30311515CC840074954
:101D6000086007480068FFF701FF00207CE70000DB
:101D70000020024000100240965800080800002091
:101D8000380000200148006870470000080000206B
:101D900000B5FFF7F7FF04494968044AC1F302217F
:101DA000515CC84000BD000000100240A658000869
:101DB00000B5FFF7E7FF04494968044AC1F3C221AF
:101DC000515CC84000BD000000100240A658000849
:101DD00085B014A090E80E00C068CDE902230191FF
:101DE000049014A000680090134B5968134801F048
:101DF0000C02042A10D0082A0ED101A8C1F3834294
:101E0000805CC9030AD55968C1F340411DF801102F
:101E10000A4A5043B0FBF1F005B070470849484307
:101E2000FAE7000002030405060708090A0B0C0D77
:101E30000E0F1010010200000010024000127A0084
:101E400000093D002DE9F84F0446002C0ED0207803
:101E5000D94DC0075ED06868C0F3810001280BD05F
:101E60006868C0F38100022803D00CE00120BDE8BF
:101E7000F88F6868C00306D5286880034AD5606873
:101E8000A8BB0120F3E76068B0F5803F11D0A8B18E
:101E9000B0F5A02F1BD0286820F480302860286877
:101EA00020F480202860606830B3FFF73FFE0646CC
:101EB0001EE0286840F480302860F4E7286820F4A9
:101EC00080302860286820F480202860EBE72868AC
:101ED00040F480202860286840F480302860E2E7E1
:101EE000FFF724FE801B642802D90320BFE711E01E
:101EF00028688003F4D50DE0FFF718FE064606E0DB
:101F0000FFF714FE801B642801D90320AFE728687F
:101F10008003F5D42078DFF8A48280074FF0010A0F
:101F20004FF0000945D5686810F00C0F07D06868BD
:101F3000C0F38100022812D16868C0030FD428685A
:101F4000800704D52069012801D001208FE7286887
:101F5000616920F0F80040EAC100286029E02069AA
:101F6000B8B1C8F800A0FFF7E1FD064606E0FFF7AC
:101F7000DDFD801B022801D9032078E7286880074F
:101F8000F5D52868616920F0F80040EAC1002860B2
:101F90000FE0C8F80090FFF7C9FD064606E0FFF71E
:101FA000C5FD801B022801D9032060E7286880074F
:101FB000F5D42078000726D58148A16999B1C0F8E9
:101FC00000A0FFF7B3FD064606E0FFF7AFFD801B5C
:101FD000022801D903204AE7686A8007F5D5012065
:101FE00001F030FD0FE0C0F80090FFF79FFD0646BE
:101FF00006E0FFF79BFD801B022801D9032036E78E
:10200000686A8007F5D42078400773D50026E86910
:10201000C00008D4E86940F08050E861E86900F049
:10202000805000900126DFF89CB1DBF80000C0056D
:1020300014D4DBF8000040F48070CBF80000FFF708
:1020400075FD074606E0FFF771FDC01B642801D946
:1020500003200CE7DBF80000C005F4D5E068012898
:1020600012D0B0B105281DD0286A20F001002862E6
:10207000286A20F004002862E06841F2883B28B317
:10208000FFF754FD07461DE0286A40F00100286272
:10209000F2E7286A20F001002862286A20F0040094
:1020A0002862E9E7286A40F004002862286A40F0C4
:1020B00001002862E0E7FFF739FDC01B584501D950
:1020C0000320D4E6286A8007F5D50DE0FFF72EFD42
:1020D000074606E0FFF72AFDC01B584501D903203B
:1020E000C5E6286A8007F5D4012E03D1E86920F0FF
:1020F0008050E861E069A0B36968C1F381010229F9
:1021000046D0022805D0C8F86090FFF70FFD0446BE
:102110003AE0C8F86090FFF709FD064606E0FFF7D1
:1021200005FD801B022801D90320A0E62868800154
:10213000F5D4206AB0F5803F05D16868A16820F425
:10214000003008436860D4E908010843696821F455
:10215000741108436860C8F860A0FFF7E7FC044604
:1021600007E026E0FFF7E2FC001B022801D903206C
:102170007DE628688001F5D51BE0FFF7D7FC001B42
:10218000022801D9032072E628688001F5D410E006
:1021900001280CD06868226A00F48031914204D191
:1021A000616A00F47010884203D001205FE60120CC
:1021B0005DE600205BE600000010024000004242A5
:1021C000800442420070004010B5401EB0F1807F94
:1021D00001D3012010BD4FF0E02460610F21601792
:1021E00002F02FF80020A06107202061002010BD20
:1021F0007047000070B5044622681068D1685269C3
:1022000000F00F03002B08D1850606D58D0604D5F6
:102210002046BDE8704001F01EBF002B60D002F0E8
:10222000010301F490751D435AD0C50705D0CD05B3
:1022300003D5E56B45F00105E563450705D5D507F1
:1022400003D0E56B45F00205E563850705D5D207A8
:1022500003D0E26B42F00402E263020707D501F00B
:1022600020021A4303D0E26B42F00802E263E26B01
:10227000002A2AD0800604D5880602D5204601F01F
:10228000EAFE20684069C0F38010E16B090700D4C2
:1022900000B3204601F0C4FE20684169490615D507
:1022A000416921F040014161606B58B115494163BA
:1022B000606BFFF781FA002807D0606B416BBDE8C7
:1022C000704008472046FFF793FF70BD2046FFF798
:1022D0008FFF70BD2046FFF78BFF0020E06370BDCD
:1022E000020606D50A0604D52046BDE8704001F076
:1022F00057BF4006F3D54806F1D52046BDE87040EB
:1023000001F09CBE1140000870B50446002C04D0BA
:1023100094F83900002510B106E0012070BD84F862
:102320003850204600F022F8242084F83900206834
:10233000C16821F40051C160204601F0D5FE20683B
:10234000016921F4904101612068416921F02A016D
:1023500041612068C16841F40051C160E5632020FB
:1023600084F8390084F83A00002070BD10B586B0BA
:1023700000681E49884236D11D48816941F0040138
:102380008161816901F004010191816941F00401D9
:102390008161816901F004010191816941F4804109
:1023A0008161806900F4804001904FF400700290D8
:1023B0000220039001200490032005900D4C02A9F7
:1023C0002046FFF7A1FA211502910021039102A9ED
:1023D0002046FFF799FA2520FFF7EBFB0322114671
:1023E0002520FFF7F3FB06B010BD000000380140C8
:1023F000001002400008014090F83A30202B01D034
:1024000002207047F9B1F2B190F83830012B1CD09E
:1024100081628285C2850021C163222280F83A2030
:1024200080F838100168CA6842F48072CA60016896
:102430004A6942F001024A610068C16841F0200126
:10244000C1600020704701207047022070470000E3
:1024500030B400681649884228D1164A50880104D1
:1024600019D41146440409784FF0000307D50A290E
:1024700001D053800FE040F4004050800BE00D2964
:1024800010D00D4DC0F30D042955401C80B2508072
:10249000C72800D953800848012230BC0549C830FC
:1024A000FFF7AABF40F480405080F4E730BC70478B
:1024B000003801402C000020380900207047FEE75A
:1024C00002494AF6AA200860704700000030004028
:1024D00030B585B02248816941F040018161816950
:1024E00001F040010091816941F008018161816939
:1024F00001F008010091816941F001018161806969
:1025000000F0010000901749486820F0E06040F0BA
:10251000007048604FF60F70019001200290039008
:1025200003200490104C01A92046FFF7EDF9172174
:1025300001910E4D01A92846FFF7E6F900224FF45C
:102540007F412046FFF7EAFA00220F212046FFF7DD
:10255000E5FA002210212846FFF7E0FA05B030BD69
:10256000001002400000014000180140000C014032
:1025700004490A6822F47F420A600A6842EA00209D
:10258000086070470C180140FEE770477047000074
:1025900070B505460E461446002D06D046B11048CB
:1025A000807840B11220207070BD0420207070BD72
:1025B0000C20207070BD2A78012A08D0022A06D08B
:1025C000032A04D0042A02D00120207070BD1020FC
:1025D000FDF72CFE6E61FDF737FE0020207070BD08
:1025E0004C00002010B500F01BF800F007FF00F0D1
:1025F00015FF00F025FF00F0D5FE00F09DFE00F075
:10260000B1FF00F0D7FF00F053FF00F079FF00F0BA
:10261000C3FC00F01DF8BDE81040FFF7B7BF000095
:1026200008494FF480700022401E04C10028FBD1ED
:102630000549064821F007014160028010218160B0
:1026400070470000400A0020400E0020400000209B
:10265000704700000449C879012804D18878FF2810
:1026600001D2401C887070474C00002070B5144C9B
:10267000E079012822D11020FDF7D8FD0546A17888
:1026800009B1491EA170A07898B9E07888B900F026
:10269000DBFF0C48627950F82210A1622079824257
:1026A00007D0086C401C0864E068401CE060FDF73F
:1026B00000FE2846BDE87040FDF7C6BD70BD0000B5
:1026C0004C0000203013002010B5094CE07901289F
:1026D0000DD11020FDF7AAFDA17821B9E178FF29DD
:1026E00001D2491CE170BDE81040FDF7ADBD10BD41
:1026F0004C00002010B5114CE07901281CD11020AD
:10270000FDF794FDA17819B1BDE81040FDF79CBD1F
:10271000E17869B1491EC9B2E17019B1BDE8104054
:10272000FDF792BDFDF790FDBDE8104000F066BFDB
:10273000BDE81040FDF788BD10BD00004C00002032
:1027400070B505460E480078002801D0002070BD05
:102750001020FDF76BFD0B490C680CB162680A6034
:10276000FDF772FD4CB103202070258100206060D0
:1027700005A06061204600F0D5FD204670BD000038
:102780004E0000205C0000203F0000002DE9F047D3
:10279000054689461446002D06D02878032806D021
:1027A00001202070BDE8F08704202070FAE7284857
:1027B000007810B102202070F4E72648007810B1AC
:1027C0000D202070EEE71020FDF730FD0746288928
:1027D000002630B1401E28813846FDF735FD2670B1
:1027E000E0E7DFF87480D8F8000010F8381F41F0F7
:1027F00001010170467040F8049C284600F06CFD11
:102800003846FDF721FD00F0F9FE1020FDF70EFD22
:102810000746D8F8000090F8391099B1022913D072
:10282000294600F031FD0A202070D8F800001C3045
:10283000067746770660466086603846BDE8F04712
:10284000FDF702BD2670F0E70E202070EDE70000D6
:102850004E0000204F0000206C00002070B50446A0
:10286000002C04D02078032803D0012070BD042060
:1028700070BD1020FDF7DAFC0546A07A60B1002398
:1028800001221946204600F0C5FC2846FDF7DCFC75
:1028900000F0B4FE002070BD20894FF6FF71884221
:1028A00006D2401C20812846FDF7CEFC002070BDDA
:1028B0002846FDF7C9FC332070BD000010B5094C57
:1028C000E07900280CD100F0BFFE60792071064944
:1028D00051F82000A0622062BDE81040FDF7BDBCA9
:1028E00010BD00004C00002030130020FEF7B4BEE5
:1028F0002DE9FE4305460E4690461C463F2C02D964
:102900002A20BDE8FE831020FDF790FC1A490978C3
:1029100019B1FDF799FC3C20F3E7184F57F8241044
:1029200019B1FDF791FC2820EBE7012147F82410AD
:10293000FDF78AFC002342463146284600F0B0F9F4
:1029400001460025009501952B462A462046029512
:1029500000F08AFE064646B11020FDF767FC47F8F6
:102960002450FDF771FC3046CBE70548007801287C
:10297000F9D100F043FEF6E74E00002030130020AE
:10298000530000202DE9FF4F83B08246DDE9119707
:10299000DDE913868B461C463F2C03D92A2007B05D
:1029A000BDE8F08F1020FDF741FC1D49097819B1F1
:1029B000FDF74AFC3C20F2E71A4D55F8241019B1F6
:1029C000FDF742FC2820EAE7012145F82410FDF735
:1029D0003BFC32463946484600F044FF33465946F0
:1029E0005046059A00F05CF90146CDE90078029660
:1029F0004A462046109B00F037FE06464EB1102096
:102A0000FDF714FC002145F82410FDF71DFC3046AD
:102A1000C5E7054800780128F9D100F0EFFDF6E799
:102A20004E0000203013002053000020FEF715BE9A
:102A30002DE9F047054648480078002802D040209C
:102A4000BDE8F0873F2D04D005D3FF2D03D02A2009
:102A5000F6E73E20F4E71020FDF7E8FB0646FF2DE1
:102A600003D13E48006890F83A503D4F57F8254052
:102A70005CB1012C0ED094F83C103A4A94F83D30E9
:102A8000505C9843505450B10FE03046FDF7DCFBEA
:102A90004320D5E73046FDF7D7FB3D20D0E732484D
:102AA00094F83E20017891430170E16911B120460C
:102AB00000F0EAFB216A11B1204600F0F8FBE06A61
:102AC00008B100F05DFC4FF00008C4F8348084F8D1
:102AD000388084F83980DFF8949099F80000FF2856
:102AE00002D2401C89F800003046FDF7ADFB00F033
:102AF0008FFB1020FDF79AFB064699F8000010B1F5
:102B0000401E89F80000204600F03CF8184908787B
:102B1000401E087047F82580A06990B16169416145
:102B2000D4E905108861134801686161046012A04E
:102B300060653046FDF788FB10480078012807D013
:102B400008E06069C0F818800D4960690860EAE72C
:102B500000F054FD002073E74E0000206C000020C0
:102B60003013002080000020520000204F00002081
:102B700054000020700000203F000000530000209F
:102B800078000020FEF76ABDFEF769BD70B5054606
:102B90000E4614463F2D04D9FF2D02D02A20207066
:102BA00070BD2EB11548007828B11220207070BD7C
:102BB0000C20207070BD1020FDF738FB0246FF2D61
:102BC00003D10F48006890F83A500E4850F825009D
:102BD000432540B101280BD046651046FDF734FB74
:102BE0000020207070BD1046FDF72EFB257070BDD3
:102BF0001046FDF729FB257070BD00004E00002037
:102C00006C00002030130020FEF72ABDFEF729BD1E
:102C10002DE9F04104460E463F2C04D9FF2C02D08A
:102C20002A20BDE8F0814EB1002030607060102095
:102C3000FDF7FCFA0146FF2C02D005E00920F0E781
:102C40001548006890F83A40144850F8240058B1EC
:102C500001280ED0027CD20710D00024C7688568F6
:102C60000846FDF7F1FA0FE00846FDF7EDFA4320BC
:102C7000D7E70846FDF7E8FA4320D2E70846FDF714
:102C8000E3FA4520CDE7641C01CD0028FBD0346079
:102C9000381B70600020C4E76C0000203013002057
:102CA000121D22F007024FF0807342F8043C42F8F4
:102CB000080C0C3A14481060A2F134004FF01233A3
:102CC00003634FF00332C2624FF00232826252104D
:102CD000426201626FF00201C1614FF01131816106
:102CE0001101416159100161D100C1604FF00731FC
:102CF00081604FF0063141604FF0053140F8041912
:102D000091000160704700008937000870B50446E3
:102D10003F2C04D005D3FF2C03D02A2070BD4720C0
:102D200070BD1020FDF782FA01461F48FF2C06D027
:102D3000006890F83A00A04206D1012505E000683D
:102D400090F83A40012500E00025184850F824008A
:102D500058B101280ED090F83C20154C90F83D60F9
:102D6000A35CB343A35453B10FE00846FDF76CFADC
:102D7000482070BD0846FDF767FA432070BD0D4A34
:102D800090F83E401378A343137010F8382F42F0A8
:102D9000080202700846FDF757FA012D01D100F034
:102DA0002DFC002070BD00006C00002030130020BE
:102DB0008000002052000020FEF754BC70B504468D
:102DC00012480078002820D11148007800281CD132
:102DD000002C1AD01020FDF729FA0E49096891F845
:102DE0003C200D4D91F83D60AB5CB343AB542BB927
:102DF0000A4A91F83E501378AB4313704C63FDF7C9
:102E000023FABDE8704000F0F9BB70BD4E00002011
:102E10004F0000206C0000208000002052000020A5
:102E200070B51B4C2478002C01D0552070BD194C76
:102E300024780CB1322070BD10B909B902B91BB1A8
:102E40003B2903D9512070BD542070BD3B2A01D9C4
:102E5000522070BD4FF47A74A34201D3532070BD49
:102E60004FF47A756B43B3FBF4F34FF46164604342
:102E7000C1EB011100EB8100104400EB4001C1EBFC
:102E8000C01003EBC000FFF799FF002070BD0000E9
:102E90004E0000204F00002010B51020FDF7C6F9AD
:102EA00002490C68FDF7D0F9204610BD7C000020D7
:102EB0002DE9F04100F056F81020FDF7B7F9284D44
:102EC000296B491C2963FDF7BFF9E879012844D132
:102ED000687A0126002748B1012809D0022809D0C4
:102EE00001206F72002838D0EC6A32E00120F9E747
:102EF0000020F7E701206E72F4E71020FDF796F945
:102F0000616B19B3491E616301BB94F8381011F06D
:102F1000370F06D001F0C80184F8381084F8396002
:102F200001E084F8397094F8381009070ED494F849
:102F30003E10AA791143A971094A94F83C10343221
:102F400094F83DC0535C43EA0C0353546469FDF7A5
:102F50007BF994F83A003F28CFD1BDE8F08100001A
:102F60004C00002010B5FEF77EFB07490888401C86
:102F700080B208800A2805D300200880BDE81040F0
:102F800000F004B810BD00004000002001480068B7
:102F9000FFF764BCA000002038B54FF4207124482E
:102FA00000F0D6FA3821234800F0D2FA002000249D
:102FB0001F4B6425411C0A4689B200EB800003EBDD
:102FC000C00001EB810103EBC101057080F82540D1
:102FD000C16019A1016290B20F28EBD300EB800011
:102FE00003EBC000057080F82540C46012A10162A7
:102FF00012480460124804801249102008801248C8
:1030000003600120FFF79CFB104C20600020FFF7BD
:1030100097FB0F4D28606A460EA12068FFF7B8FAAB
:103020006A4611A12868FFF7B3FA00F027F838BD07
:10303000401D0020C02100203F000000980000201B
:103040009600002094000020A40000209C00002096
:10305000A000002075432F4F532D494920546D7215
:103060004C6F636B0000000075432F4F532D49498F
:1030700020546D725369676E616C000000B587B0B3
:1030800080220B4BCDE9013203200021CDE9031052
:103090004FF6FD7000903D23064A0748FFF772FC8B
:1030A00006AA06A13D20FFF771FD07B000BD000094
:1030B000C01F0020BC2100202D31000875432F4F78
:1030C000532D494920546D7200000000032280F8FE
:1030D0002520144A0129126817D08169C9B1114409
:1030E000416141690722B1FBF2F302FB13110E4A61
:1030F00002EBC10100230A687AB10860C260106166
:103100008A88521C8A8003617047C16911444161F9
:10311000E7E7C16911444161E3E70860C360012248
:103120008A80F0E798000020C021002008B5DFF871
:103130007080DFF870A01C4E4FF007096A4600212E
:10314000D8F80000FFF722FBFFF7BEFA3068401CFA
:103150003060B0FBF9F109FB11000AEBC000046814
:10316000022713E0E5686069316888420DD1204686
:1031700000F01CF894F8240002280CD084F8257084
:10318000626812B12046A16890472C46002CE9D114
:10319000FFF7B0FAD2E701212046FFF797FFEFE7EC
:1031A000A0000020C02100209800002010B5416937
:1031B0000722B1FBF2F302FB13110C4A02EBC1012F
:1031C00000240B68C268834203D10A602AB11461EB
:1031D00003E00369DA6002B11361012280F825205F
:1031E000C46004618888401E888010BDC021002012
:1031F00010B51020FDF71AF80446FFF72BFA204609
:10320000FDF722F8FFF754FEBDE81040FFF72EBA95
:1032100070470000F0B505468C46A87A1749085C4F
:103220002C18E47A095D01EBC001CEB2144951F8C3
:103230002640002744F8347F44F80CCC2179914390
:1032400021716371343C09070BD40E4994F83E2078
:103250008B791A438A71343194F83D300A5C1A43F1
:103260000A542946204600F00FF8216A21B1204671
:1032700000F01DF8276265623046F0BDAE580008C8
:10328000301300204C00002010B590F83C2090F83E
:103290003D408B18DA7AA243DA72002A04D18A7A86
:1032A00090F83E309A438A720021C16110BD70B51A
:1032B00010F83C4F85784678086809E00319DA7AF7
:1032C000B243DA7212B9827AAA438272091D08687F
:1032D0000028F3D170BD000030B5114C216AC861DF
:1032E00091F83C3000F10B0291F83D109D5C0D43CC
:1032F0009D54216A827A3C318B781A438272087815
:1033000004F134034D781A5C3C39AA431A54002A5C
:1033100004D191F83E10A0798843A07130BD00001F
:103320004C0000200022827200214318DA72491CEE
:10333000C9B20829F9D3704710B550210D4800F0E3
:1033400007F900200B4B0024411C8AB203EB00104C
:1033500003EB02120470426007A2C26088B2042824
:10336000F2D303EB00100470446003A1C160034872
:10337000036010BD181C00203F00000088000020E2
:10338000426801680023002A05D0116001B14A603B
:103390008068C3627047C26851600029F8D04B60F2
:1033A000F6E7000010B5F021114800F0D1F8002038
:1033B0000F4B0024411C0A4689B200EB400003EB8E
:1033C000C00001EB410103EBC1010470416009A1A0
:1033D000416190B20928EDD300EB400003EBC0003F
:1033E0000470446003A141610348036110BD000003
:1033F000400E00203F0000004C0000200648002145
:1034000001638170C1700172C171C160C16181616C
:1034100041614170817270474C000020074B0021D0
:103420009971002003F134021154401CC0B20828E5
:10343000FAD3197159719962196270474C000020D2
:1034400010B54FF4FD61164800F082F84FF480711A
:10345000144800F07DF80020114B411C0A46C9B207
:10346000C0EBC00404EB001003EB8000C1EBC1040F
:1034700004EB011103EB810141610BA14165D0B265
:103480001528EAD3C0EBC00101EB001003EB80006C
:103490000021416104A242650448C162436210BD3B
:1034A00030140020301300203F0000004C000020AA
:1034B00000B587B080220B4BCDE9013203200021FB
:1034C000CDE903104FF6FF7000903F23064A0748EE
:1034D000FFF758FA06AA06A13F20FFF757FB07B0EF
:1034E00000BD0000301100202C1300206D370008B3
:1034F00075432F4F532D49492049646C65000000E6
:1035000000B587B080220B4BCDE9013203200021AA
:10351000CDE903104FF6FE7000903E23064A07489F
:10352000FFF730FA06AA06A13E20FFF72FFB07B0EF
:1035300000BD0000300F00202C110020A137000832
:1035400075432F4F532D4949205374617400000077
:10355000002203E000F8012B491E89B20029F9D1AD
:103560007047000010B578210F48FFF7F1FF0020E9
:103570000D4A00EB400102EBC101401C00EB40038F
:1035800002EBC3034B6009A34B6180B20428F0D364
:1035900000EB400002EBC0000021416003A141614B
:1035A0000348026010BD0000681C00203F000000BE
:1035B0008C00002010B560210E48FFF7C9FF0020E5
:1035C0000C4B411C0A4689B200EB400003EBC000E3
:1035D00001EB410103EBC101016090B20328F0D37C
:1035E00000EB400003EBC0000021016002480360D3
:1035F00010BD0000E01C00209000002070B51020DD
:10360000FCF714FE05460E4CA07898B9E07888B90E
:1036100000F01AF80B48627950F82210A162207964
:10362000824207D0086C401C0864E068401CE060DF
:10363000FCF73FFE2846BDE87040FCF705BE0000E1
:103640004C000020301300200649054A8879105CA0
:1036500001F134031B5CD25C02EBC000487170477F
:10366000AE5800084C0000202DE9F05F0546DDE96A
:103670000AAB0E46904699461020FCF7D7FD384F0E
:103680007C6A002C67D0203454F80C1C7962FCF75B
:10369000DBFD44F8206CA57600262676667666610A
:1036A00044F81CBC44F814AC44F8188C0C9824F86A
:1036B000100C24F80E9CE677E808207705F0070147
:1036C000E176012303FA00F2A27703FA01F26277AE
:1036D00044F8046C26606660E660A6602662A66216
:1036E0006662E66226631FA06063203C002004EB54
:1036F00080018E65401CC0B20028F8D02046FFF73C
:10370000F5F81020FCF792FD174941F82540FCF729
:103710009BFD2046FFF78AF91020FCF787FD014644
:10372000F86A6061A66100B18461FC623C34BA79D8
:10373000A0781043B8710A4A207834326478135C58
:1037400023431354387A401C38720846FCF77CFD3A
:103750000020BDE8F09FFCF777FD4220F9E700006C
:103760004C0000203F00000030130020054C1020CA
:10377000FCF75CFDE169491CE161FCF765FDFFF7C1
:1037800003FAF4E74C00002010B504480068FFF786
:103790003BFABDE81040FF20FFF74AB96C0000205B
:1037A000214C02E0C820FFF709FB60780028F9D01F
:1037B00060696426B0FBF6F06061002518B92570D9
:1037C000FF20FFF7A3FA1020FCF730FD61696422A7
:1037D0005143E161FCF738FD0120FFF7EFFA1020BB
:1037E000FCF724FDE561FCF72FFD6420FFF7E6FA06
:1037F0001020FCF71BFDE169A161FCF725FDD4E970
:103800000501B1FBF0F040B2C0F1640040B2002805
:1038100001DB207003E02570B1FBF6F06061FFF77B
:10382000F5F900F003F8D7E74C0000207CB5002440
:103830000B4D69462046FFF7EBF958B955F82410AF
:1038400041B1012906D0D1E9020200EB8200C8642F
:1038500001980865641CE4B23F2CEAD97CBD0000E5
:1038600030130020D30707D0920705D5002201E0CE
:10387000491E04C00029FBD17047000070B5044602
:103880000D46184EE00705D0012211463046FEF7DE
:1038900045F904E0002201213046FEF73FF9A00778
:1038A00005D5012202213046FEF738F904E0002256
:1038B00002213046FEF732F9A00805D0012204218A
:1038C0003046FEF72BF904E0002204213046FEF7D3
:1038D00025F90548405DBDE870408030C0B2FEF774
:1038E00047BE0000000C01400C00002010B5234C26
:1038F0006C281ED008DC4C281BD0522833D053280B
:103900001DD0542806D10AE072282CD0732816D076
:10391000742804D0BDE8104019A0FCF713BD6068FE
:1039200001F070FC0246BDE810400B4622A0FCF7F7
:1039300009BD6188BDE8104025A0FCF703BD27A0A4
:10394000FCF700FD606801F05DFC02460B461AA022
:10395000FCF7F8FC61881EA0FCF7F4FCBDE8104001
:1039600028A0FCF7EFBC31A0FCF7ECFC642000F0D1
:103970001FFDBDE8104000F035BF00000000002032
:10398000436F6D6D616E64733A205428E6B8A9E503
:10399000BAA6292C204C28E58589E785A7292C2063
:1039A0005328E78AB6E68081292C205228E5A48D89
:1039B000E4BD8D290D0A000054656D706572617457
:1039C0007572653A20252E316620430D0A000000ED
:1039D0004C696768743A2025640D0A000D0A3D3D64
:1039E0003D3D3D3D3D3D3D3D2053797374656D202A
:1039F000537461747573203D3D3D3D3D3D3D3D3DFE
:103A00003D0D0A003D3D3D3D3D3D3D3D3D3D3D3D86
:103A10003D3D3D3D3D3D3D3D3D3D3D3D3D3D3D3DD6
:103A20003D3D3D3D3D3D3D3D0D0A000053797374E4
:103A3000656D207265626F6F74696E672E2E2E0D34
:103A40000A00000008B507494FF4FA520968B1FBB3
:103A5000F2F14143009100BF0098411E0091FAD25B
:103A600008BD00000800002070470000064A1368E7
:103A700023F007031360136800F00700034313608B
:103A80000248405CFEF774BD0C0C01400C000020A5
:103A900010B505480078012801D1FFF7A9FBBDE862
:103AA0001040FEF749B800005300002010B5FEF7A3
:103AB0004BF84FF4E01000F0A7FE482000F062FC45
:103AC000FEF706FD4FF4E13000F0CAFE00F026FAE2
:103AD000FDF70EFDFDF766FD00F068F800F030FC24
:103AE00006A0FCF72FFC11A0FCF72CFC19A0FCF79A
:103AF00029FCBDE8104020A0FCF724BC0D0A3D3D88
:103B00003D3D3D3D3D3D3D3D3D3D3D3D3D3D3D3DE5
:103B10003D3D3D3D3D3D3D3D3D3D3D3D3D3D3D3DD5
:103B20003D3D3D3D3D3D0D0A000000002020202090
:103B300075432F4F532D4949204D756C74692D5491
:103B400061736B2053797374656D20537461727463
:103B50000D0A00002020202054656D70657261748C
:103B600075726520616E64204C69676874204469D1
:103B700073706C61790D0A003D3D3D3D3D3D3D3D1D
:103B80003D3D3D3D3D3D3D3D3D3D3D3D3D3D3D3D65
:103B90003D3D3D3D3D3D3D3D3D3D3D3D3D3D3D3D55
:103BA0000D0A0D0A000000007047000000B585B046
:103BB000002002900A48816941F008018161806912
:103BC00000F00800009020200190012003900320C5
:103BD000049001A90348FDF797FE05B000BD000061
:103BE00000100240000C01400B4800680169C94305
:103BF000C9070FD1891E016108498878401CC0B2ED
:103C00008870092806D30020887001200870487841
:103C1000401C487070470000A808002017000020D2
:103C200010B51C4C20680069C043C00731D11A4947
:103C300000228879A0B18878401CC0B288703C28E6
:103C40000ED38A704878401CC0B248703C2807D315
:103C50004A700878401CC0B20870182800D30A7057
:103C6000487990B1087910B1401E08710DE0C8780C
:103C700020B1401EC8703B20087106E04A71012047
:103C80008871C8710A72FEF71BFC21686FF0010091
:103C9000086110BDF00800201B00002038B510A0FE
:103CA000FCF750FB174C16E0FDF71EFD60600E2080
:103CB000FDF716FD6080606801F0A4FA628800924A
:103CC00002460B4610A0FCF73DFB002301221946DB
:103CD0001846FFF7A5F820780028E5D138BD000088
:103CE0005B414443205461736B5D20537461727473
:103CF000207375636365737366756C2E2E2E0D0AC3
:103D000000000000000000205B4144435D2054653A
:103D10006D703A20252E316620432C204C6967684F
:103D2000743A2025640D0A002DE9FE4F47A0FCF7E8
:103D300009FB4FF47A780A274E4E81E0FFF7ACF882
:103D40008146706801F0AEFBC5B2284601F0CAFB9F
:103D5000716801F0A7FC484901F0D8FB01F0A2FB13
:103D6000C0B202907088B0FBF8F0C0B201907088C9
:103D7000B0FBF8F108FB11016420B1FBF0F101F098
:103D8000FF0A7188B1FBF0F200FB1210B0FBF7F0F4
:103D900000907088B0FBF7F107FB110B0024B5FB16
:103DA000F7F10020FFF762FE642000F02BFBB5FB6B
:103DB000F7F007FB10510120FFF760FD642000F0D1
:103DC00021FB02200299FFF751FE642000F01AFB4C
:103DD0007088404504D20C210420FFF747FE03E021
:103DE00004200199FFF742FE642000F00BFB5146CE
:103DF0000520FFF73BFE642000F004FB062000993D
:103E0000FFF734FE642000F0FDFA59460720FFF763
:103E10002DFE642000F0F6FA0020FEF7A9FB641CDA
:103E20000A2CBCDBFFF738F8A0EB0900142807D2F6
:103E3000C0F11400002283B211461046FEF7F0FFD5
:103E4000307800287FF47AAFBDE8FE8F5B44697359
:103E5000706C6179205461736B5D2053746172746E
:103E6000207375636365737366756C2E2E2E0D0A51
:103E700000000000000000200000204110B51020CC
:103E8000FCF7D4F9044605230C4A00210C48FEF740
:103E90002FFD06230B4A00210B48FEF729FD0723BF
:103EA0000A4A00210A48FEF723FD0A20FEF72EFFEA
:103EB0002046BDE81040FCF7C7B90000A40200206E
:103EC0009D3C0008A4040020D53E0008A406002064
:103ED000293D00082DE9F0410C48FCF733FA0C4C61
:103EE00000250C4E0C4F0CE02088000403D53078E0
:103EF0002580FFF7FBFC0022322311461046FEF717
:103F00008FFF38780028EFD1BDE8F081845A00088F
:103F10002E00002038090020000000203748816969
:103F200041F01001816136490A6822F47F020A607B
:103F3000416821F440414160416841F400414160E1
:103F4000816941F400718161C16841F40071C1600F
:103F5000C16821F40071C1602A4801682A4A1140F1
:103F6000016001680160016821F480710160001D39
:103F7000016821F002010160016821F46021016003
:103F8000016841F460210160016841F48011016021
:103F9000016821F400610160016841F400010160E1
:103FA000184928310A6822F470020A600A6800225F
:103FB0000A60011D0A68154B1A400A600A6842F43B
:103FC000E0420A600A6842F460320A600A6842F419
:103FD000E0120A60016841F001010160016841F0EE
:103FE0000801016001680907FCD4016841F004017F
:103FF000016001684907FCD47047000000100240CE
:104000000008014004240140FFFFF000FF0FE0FF23
:1040100010B5406A0021C185C184FEF7E9F810BDE2
:104020000168CA6822F49072CA6001684A6922F085
:1040300001024A61202180F83A10704710B50168EA
:10404000CA6822F04002CA60202180F83910FEF7C9
:1040500035FA002010BD10B590F83A10222901D091
:10406000022010BD82684FF480539A4201D1016949
:1040700021B1816A9A421DD052B10BE0816A026877
:104080005268C2F308020A80816A891C816209E0D1
:1040900002697AB10268526802F07F020A70816A8E
:1040A000491C8162C18D491E0904090CC18505D0D6
:1040B000002010BD026852680A70F0E70168CA6803
:1040C00022F02002CA600168CA6822F48072CA60C5
:1040D00001684A6922F001024A61202180F83A1001
:1040E000FEF7B6F9002010BD70B5044620680169DE
:1040F000E26821F4405111430161A1682069014344
:10410000606901432068C26841F20C639A430A4324
:10411000C26020684169A26921F440711143416184
:104120001E492068884202D1FDF742FE01E0FDF7FA
:104130002FFE00EBC00101EB0010616864228900D2
:10414000B0FBF1F3B3FBF2F36FF018067343B0FB6F
:10415000F1F5B0FBF1F605EB8305322303EB051512
:10416000B5FBF2F5B6FBF2F605F0F00505EB06152A
:10417000B0FBF1F6B0FBF1F0B0FBF2F06FF018011C
:10418000484306EB800003EB0010B0FBF2F021681F
:1041900000F00F002844886070BD00000038014026
:1041A00090F83910212901D0022070478168B1F5BB
:1041B000805F01D1016961B1016A4A1C0262026833
:1041C00009785160C18C491E0904090CC1840AD0C8
:1041D00013E0016A02680988C1F308015160016AAD
:1041E000891C0162EEE70168CA6822F08002CA6099
:1041F0000068C16841F04001C160002070470000C4
:1042000010B5FEF727FA0348FDF7F4FFBDE81040AC
:10421000FEF72CBA000A0020FEE7490050EAC12050
:1042200018BF04204A0D18BF40F0010040F2FF7291
:10423000B2EB515F08BF40F00200012808BF052023
:1042400070470907090E002804DB00F1E02080F820
:104250000014704700F00F0000F1E02080F8141DFA
:1042600070472DE9F0414F1E00EBC7010446D1E92C
:10427000000115461E4637F006020DD02A46334689
:1042800000F0CCFD7F1E04EBC703D3E9002300F050
:104290004BFB37F00602F1D1022F25D0042F13D0AB
:1042A000062F18BFBDE8F0812A46334600F0B6FD60
:1042B000D4E90A2300F038FB2A46334600F0AEFD6D
:1042C000D4E9082300F030FB2A46334600F0A6FD6F
:1042D000D4E9062300F028FB2A46334600F09EFD71
:1042E000D4E9042300F020FB2A46334600F096FD73
:1042F000D4E9022300F018FB2A46334600F08EFD75
:10430000D4E90023BDE8F04100F00EBB00221346C3
:104310001046014900F0C4BB0000F03F012201F04B
:1043200074BA002213461046114600F0B9BB30386B
:104330000A2801D201207047002070477047000012
:1043400010B586B00D48816941F0400181618069F6
:1043500000F04000019020200290012003900220F4
:1043600004900590064C02A92046FDF7CDFA0022E4
:1043700020212046FDF7D2FB06B010BD0010024000
:1043800000180140094948604FF47A7250430122F5
:104390000A804FF0E0210A6942F002020A61486196
:1043A000086940F001000861704700002400002007
:1043B00070B504460D48007800280FD00C480078EE
:1043C00060B90C4D2888844203D3B4FBF0F000F0B0
:1043D00017F82888B4FBF0F100FB11444FF47A7011
:1043E0006043BDE8704000F00DB8000053000020AD
:1043F0004E00002024000020FEF766B9FEF77AB9CF
:10440000FEF7DCBC2DE9F04100244FF0E0277E6987
:1044100005460C4840684543FFF7EEFFBA69B969A5
:104420009142FCD003D2A2EB0100044403E0A6EBCE
:104430000100104404440A46AC42F0D3BDE8F04108
:10444000FFF7DCBF2400002004490A685206FCD5AF
:10445000024AC1B2121D11607047000000380140CD
:104460002DE9F04DC84A002490B0914205DA21F0C0
:104470000043934201D805D120B110B0BDE8F04D02
:10448000FFF74CBFB1F5801F1BDA53EA000209D0D9
:10449000002911DA0120FCF754F810B0BDE8F04D06
:1044A000FFF73FBF0220FCF74CF8FFF72FFF10B0DB
:1044B00081F00041BDE8F08D6FF03504362201F047
:1044C000A4F904EB2152C1F31308B049A2F2FF335F
:1044D000414401F4801282F07F6103EB225281F0AB
:1044E0004051009241EA08010022A94B00F0A0FDD2
:1044F000044608F10200A74EC0F313000D467E44A7
:10450000032867D2D6E90023204600F021FC1ED103
:104510000098002802BFD6E9000110B0BDE8F08D78
:1045200000F052FC07460C469B4A9C4B00F076FC80
:1045300006460D469A4A9B4B3846214600F06EFCD3
:1045400010B032462B46BDE8F04D00F0EDB94FF00B
:104550005532954B2046294600F060FC0022934BD3
:1045600000F05AFD06460F4622462B4610461946D5
:1045700000F054FC32463B4600F050FC06460098E2
:104580000F46F0B100F020FC80468A46824A834BF9
:1045900000F044FC32463B4600F03EFD22462B46EE
:1045A00000F046FD05460C467D4A7E4B404651468E
:1045B00000F034FC10B02A462346BDE8F04D00F070
:1045C00037BD0B4610B0324620462946BDE8F04DB7
:1045D00000F02EBD00224FF08043204600F0A4F9E9
:1045E00002460B462046294600F05AFA06460F4678
:1045F000009800F0E9FBCDE9040132463B46104645
:10460000394600F00BFC0C9069480C9A404401902C
:1046100009910B46104600F001FC824602466548AF
:104620008B46C8F151080B4608F5D728032178447A
:10463000FFF717FE52465B4600F0F0FB0A905E481B
:104640000D9152465B4604217844FFF70AFE099B10
:104650000C9A00F0E3FB844601980D9B40EA0808A1
:1046600060460A9A00F060F983460891B8F1000F9D
:104670004EDD4FF0FF322046294601F0C6F82246B3
:104680002B4600F0CBFB804600988A4660B3DDE9FC
:104690000401414A414B00F0C1FB099100905A4688
:1046A00040465146089B00F03FF932463B4600F039
:1046B000B5FB099B009A00F037F94246534600F0DB
:1046C000ABFC22462B4600F0B3FC04460D46DDE968
:1046D0000401334A334B00F0A1FB10B022462B46B5
:1046E000BDE8F04D00F0A4BC5A464046089B00F0DF
:1046F0001BF932463B4600F091FB4246534600F020
:104700008BFC10B022462B46BDE8F04D00F084BC77
:10471000009840B3DDE904011F4A204B00F07EFB06
:1047200080468A465A4620462946089B00F080FC6F
:1047300032463B4600F072FB4246534600F078FC9E
:1047400022462B4600F074FC04460D46DDE90401C8
:10475000134A144B00F062FB10B022462B46BDE812
:10476000F04D00F065BC0B465A462046294600F045
:104770005FFC32463B4600F051FB10B022462B4610
:10478000BDE8F04D00F048BC0000F07F645F090018
:104790000000F03FE6140000763C7935EF39EA3D41
:1047A0000000E0FE422EE63F5555D53F0000E03FB9
:1047B00086EBF9FF7E1300007C13000010B5FFF7B5
:1047C00075F9FDF70FFF0A23044A00210448FEF79C
:1047D0008FF8FEF773F8002010BD0000A408002039
:1047E0007D3E0008BFF34F8F05480168054A01F47C
:1047F000E06111430160BFF34F8F00BFFDE7000090
:104800000CED00E00400FA0570B590B006462821D2
:1048100006A8FBF766FE142101A8FBF762FE012142
:104820000691090407910024089402250D950E9124
:104830000F9606A8FDF706FB00B1FEE70F200190DA
:10484000029503944FF4806004900594022101A81E
:10485000FDF7EEF9002800D0FEE710B070BD0000B3
:1048600010B50B49094A0A60486000208860C8609A
:10487000086188610C2048610846FDF745FDBDE8E8
:104880001040012203490248FDF7B6BD003801403F
:10489000000A00202C00002010B500290AD008785A
:1048A000002807D005487844FCF71AFA002801D000
:1048B000002010BD0248784410BD00004A120000DC
:1048C0004212000021F00042A2F16052B2F5801FB6
:1048D00001F0004328BFD2F17F6C0BD95FEA001CC6
:1048E00043EAC20242EB507018BF704728BF20F065
:1048F00001007047B2F5801FBCBF184670474FEAF1
:10490000410C1CF5001F02D2084600F0C6BE70B56F
:1049100000F02EFB00000089FFF7F6BF4FF00040CB
:10492000A0F580007047000010B591EA030F48BF62
:1049300083F0004300F18483841A71EB030C05D2E9
:10494000121943EB0C03001B61EB0C01DFF824E1AF
:104950004FEA1154A4EB135C1EEA430F18BF9EEA02
:10496000445F73D023EA0E03DCF1200E21EA0451E8
:1049700043F4801332D322FA0CFE10EB0E0023FA1C
:104980000CFE41EB0E01CCF1200E03FA0EFE10EBF3
:104990000E0051F10001B1F5801FCCF1200E32D292
:1049A00001EB045112FA0EF2BDE8104058BF7047F7
:1049B000401C38BF5FEA420218BF7047002814BF8E
:1049C00020F0010041F100014FEA410313F5001FFF
:1049D00038BF7047A1F1C04100F018BB012A43EB7A
:1049E0000302ACF1200CDCF11F0E32BF4FF0000EC1
:1049F00023FA0CF310EB030041EB0451B4EB115F0D
:104A0000D0D0A1EB045101F5801149085FEA3000D4
:104A100001EB04510ED350F1000038BF12FA0EFE24
:104A200008D1BDE81040C9E7401C38BF5FEA420228
:104A3000CAD1C3E7BDE810404FEA410313F5001F98
:104A400038BF7047A1F1C04100F0E0BA9EEA445F70
:104A500008D011EA5E0FBDE8104004BF01F000412C
:104A600000207047BDE8104070B500F081FA00BF2B
:104A700064FBBE3E0000E0FF02494FF0000000F082
:104A800092BE00BF0000F87F491058BFC1F14041FD
:104A90005B1058BFC3F140438B42EFF30080704777
:104AA0002DE9C04130B4DFF8A0C23CEA111418BFB0
:104AB0003CEA131400F0EC8081EA03051CEA1114AF
:104AC00044EAD57418BF1CEA131500F0C780A4EBA4
:104AD00005044FF0004545EAC12145EAC32341EAF8
:104AE000505143EA525304F17F74994204F5003463
:104AF0004FEAC0204FEAC22208BF904200F09C80DB
:104B00004FEA13650FF24016765D4FEA134506FB38
:104B100005F7C7F1807706FB07F74FEAD737A7FB02
:104B200003687642C8F58038A7FB06CE38BFA8F1E7
:104B3000010807FB08E64FF0000EA6FB028CE6FB1F
:104B400003CEDCF1000CCEF1004E38BFAEF1010E09
:104B5000A6FB0C584FF000074FF00005E6FB0E8750
:104B6000A1FB08C6A0FB07CE16EB0E0645F100051B
:104B7000E1FB076515F1E04E7EBFA4F580345FEAE6
:104B800046066D4116F1800745F100054FEA1727EB
:104B90004FEA066647EA0567A6F1DE46B6F1805F92
:104BA0004FEA15251FD9384624F0010C05EBC471D6
:104BB000BCF1FE6F01EB0C1102D8F0BCBDE8008126
:104BC00024425CBF01F5801E9EEAC47F02D4F0BC83
:104BD000BDE80081244238D4F0BCA1F1C041BDE859
:104BE000004100F013BA4FEAD22242EA43524FEAA0
:104BF000D323A7FB02864FEAD02040EA415007FBAF
:104C000003661EEA0E0F4FEAD12105FB026658BF6C
:104C1000A6EB0056B6EB00564FEA520E4EEAC37EA4
:104C200018EB0E0E56EB530EBDD518EB02085E4185
:104C30007F1C55F10005B6E74FF480154FF00007D3
:104C40004FF000064FF00008ADE7F0BC4FF0000059
:104C500001F1C04101F00041BDE8008111EA0C1FE3
:104C60000CEA131500D00CE013EA0C1F00F02580AD
:104C70004FF00000F0BC81EA030101F00041BDE803
:104C80000081F0BCBDE8004181EA030100F0BEB93B
:104C9000F0BCBDE8004170B500F06AF9097EFC3E49
:104CA00000F007B881EA03014FF0000001F0004175
:104CB000704781EA030100F0A9B9F0BCBDE80041EA
:104CC0004FF0000021497047FFFDFBF9F7F5F4F2C2
:104CD000F0EEEDEBE9E8E6E4E3E1E0DEDDDBDAD897
:104CE000D7D5D4D3D1D0CFCDCCCBCAC8C7C6C5C4F5
:104CF000C2C1C0BFBEBDBCBBBAB9B8B7B6B5B4B30C
:104D0000B2B1B0AFAEADACABAAA9A8A8A7A6A5A4F6
:104D1000A3A3A2A1A09F9F9E9D9C9C9B9A999998BA
:104D20009797969595949393929191908F8F8E8E5D
:104D30008D8C8C8B8B8A89898888878786858584EA
:104D400084838382828181800000FF070000F87FD6
:104D500051EA030C17D41CF5801F58BFBCF5801F07
:104D600000F10680994218BF704708BF9042704713
:104D700007D711F5801F58BF13F5801F19D499422A
:104D80007047894270471CF5801F08D5BCF5801F0D
:104D9000F7D58B4218BF704708BF824270474FF467
:104DA000001C1CEB410F38BF1CEB430F01D28B42A0
:104DB000704770B500F0DCF8922449004FF00051C4
:104DC0004FF08053FFF760BE10F0004248BF4042F2
:104DD000B0FA80F310FA03F10AD0C3F11D0303F512
:104DE00080634FEA415002EB035202EBD12170473E
:104DF0004FF000007047B0FA80F310FA03F10AD0C8
:104E0000C3F11D0303F580634FEA41504FEA03529B
:104E100002EBD12170474FF000007047DFF848C126
:104E200070B51CEA111E1EBF1CEA13159EEA0C0F7A
:104E300095EA0C0F00F06F8081EA030423EA4C131B
:104E40004EEAD47E21EA4C1141F4801143F48013E0
:104E5000AE44A1FB024CA0FB0365AEF17F7E361988
:104E600055EB0C05A1FB034C4CF10003A0FB021C0D
:104E700016EB0C06654153F10003094218BF46F0DA
:104E8000010613F4007F0BD14FEA03314FEA0530DE
:104E9000340341EA155140EA16506FF003020AE06C
:104EA0004FEAC3214FEAC520F40241EA555140EAD6
:104EB00056506FF0020202EB2E4201EB025585EADA
:104EC000CE710AD05FEA440C18BF24F0004450F1C0
:104ED000000041F1000120EAD47040F2FE7C6245FE
:104EE00000D270BDA84214BF4FF080444FF0404440
:104EF000002E08BF0024BEF1806FA8BFA1F1C04101
:104F0000BDE8704080F282804FF0000001F1C041A6
:104F100001F0004170479EEA0C0F0CEA131518BF10
:104F200095EA0C0F06D04FF0000081EA030E0EF058
:104F3000004170BD00F01CF88900013E00F007B888
:104F400000F009B84FEA430C5FEA5C5C08D081EAE4
:104F5000030100F05BB84FEA410C5FEA5C5CF6D1FC
:104F60004FF00000014970470000FF070000F87F84
:104F70000EF1020E2EF0030E5EF8046B364205D4DD
:104F8000012A43EB030515F5001F12D8012841EB58
:104F9000010C1CF5001F0CD80ED14FEAD17C15F581
:104FA000001F0CEB4C0C0CF1020C08BF4CEBD37C3B
:104FB00004E04FF0080C01E04FEAD37C0CEB4C0509
:104FC00026FA05F606F00706B6F1040C06D20EEB3B
:104FD000860CBDE870404CF0010C6047DFE80CF037
:104FE000090B02024FF000414FF00000A1F5002133
:104FF00070BD19461046012851EB010418BFD4F5C5
:10500000001484BF002001F0004170BD0808A0F525
:1050100000114FEA3101704791EA030F10B581F09A
:1050200000413FF589AC83F0004300F009B800006F
:1050300010B591EA030F48BF83F000433FF57CAC05
:10504000841A71EB030C07D212198CF0004C43EB5D
:105050000C03001B61EB0C01DFF8A4E14FEA1154D3
:10506000A4EB135C1EEA430F18BF9EEA445F00F0F6
:10507000B08023EA6E03524221EA0451C3EB6E036F
:1050800038BF5B1EDCF1200E25D322FA0CFE10EB9C
:105090000E0043FA0CFE41EB0E01CCF1200E03FA98
:1050A0000EFE10EB0E0051F10001CCF1200E29D4C0
:1050B00012FA0EF201EB0451BDE8104058BF7047E0
:1050C000401C1CBFB2F1004F704700280CBF491CA8
:1050D00020F00100704712EB020E43EB030218BFF1
:1050E0004FF0010E4EEA4202ACF1200CDCF11E0E34
:1050F00054D943FA0CFE10EB0E0051F1FF31CCF104
:105100001E0ED5D50EF1010E12FA0EFE404141EBF6
:10511000010101EB445C5FEA5C5C10D910EBDE70CE
:1051200001EB045138BFBEF1004FBDE8104018BF7D
:10513000704700280CBF491C20F00100704730D296
:105140004FEAD42C11F5001124F400641BD0B1FAFD
:1051500081F20B3AA41AA41ED2F12003914030FA36
:1051600003F31943904001EBCC71002C01EB045187
:10517000BDE81040A8BF704701F1C0414FF00000EA
:1051800001F000417047B0FA80F310FA03F100D14A
:1051900010BDE41A173C4805C90AE4E701EB0451C5
:1051A00010BD491001EB0451BDE810404FEA30003A
:1051B00002E04FF0000170474A0008BF0042F8D0FB
:1051C000B2F5001F28BF704701F000414FF000000A
:1051D00070479EEA445F07D011EA5E0FBDE81040B9
:1051E00004BF002100207047BDE8104070B5FFF7F4
:1051F000BFFE00BF40DFF63E83F00041104670471F
:105200000000E0FF43004FEAD30C4FEA3C0C434060
:105210001FBF40070CF1605113F0FE4F70471CF0A8
:10522000006F03D100200CF0004170470CF00043E8
:1052300043EA507010B540EACC0000F0E8F900BF36
:10524000000000924FEA0001FFF7E0BE4FF000417E
:105250004FF00000A1F500217047000090EA010F17
:1052600048BF81F0004100F12E82421A3CBF801AF3
:1052700089184FEAD0524FF07F4C1CEA410FA2EB45
:10528000D15318BF9CEA026F00F03B804FF0004CF6
:105290004CEA00204CEA012121FA03FC10EB0C0C33
:1052A0001ED202F1FF325FEA1C2040EBC25038BF31
:1052B00070471CF07F0F4FEA400C18BFBCF17F4FC6
:1052C00038BF7047C3F12003994008BF20F00100A8
:1052D000BCF17F4F38BF7047A0F1C04000F0DDB98E
:1052E0004FEA3C00000A40EBC25028BF1CF0FF0F01
:1052F0004FEA400CE6D018BFBCF17F4F38BF704773
:10530000EAE79CEA026F05D010EA5C0F08BF00F0E4
:105310000040704710B500F07AF900BF64FBBE3E54
:105320004FF47F0C1CEAD0121EBF1CEAD11392EA84
:105330000C0F93EA0C0F00F0858090EA010F48BF34
:1053400042F4807240F4000C41F400002CF07F41E4
:1053500020F07F4000B58142A2EB03020FF2081C4F
:10536000ACEB504EC0F100009EF800E04FEA4E0E4C
:1053700000FB0EFC38BF49004FEA2C1C02F5FA0274
:105380000CFB0EF34FEACE1E4FEA112C4FEAC1215F
:105390000EEB635E42EB22420EFB0CFC4FEA1C5309
:1053A00000FB03114FEA112C4FEA01310EFB0CFCFC
:1053B0004FEADC4C00FB0C11C14228BF09184CEB32
:1053C00003335DF804EB10EB410143EBC250B2F53F
:1053D0007C0F38BF704729D512F0F00F1CBF00F1C9
:1053E000C04000F00040704700818283848586873A
:1053F00088898B8C8D8E8F919293959697999A9C94
:105400009D9FA0A2A3A5A7A8AAACAEB0B2B3B5B702
:10541000B9BCBEC0C2C5C7C9CCCED1D4D7D9DCDFD8
:10542000E2E6E9ECF0F3F7FAFE0000004FEA400C88
:105430000CF1807CBCF17E4F28BF7047B0F1C040BA
:1054400000F02BB990EA010F0CEAD11348BF42F4E7
:105450008072624538BF634507D213F47F0F16D0C0
:1054600080EA010000F00040704710B500F0CFF86E
:10547000097EFC3E00F005B880EA010000F0004023
:10548000704780EA010000F0004000F006B912F415
:105490007F0F04BF0248704780EA010000F0FDB8AA
:1054A0000000C07FC10DD1F19E0206DB4FEA002350
:1054B00043F0004323FA02F07047004207D54FEA59
:1054C0004001B1F1FE4F02D24FF00000704710B51D
:1054D00000F09DF849922480002070476FEA200078
:1054E00070470000B0FA80F310FA03F2C3F19D0395
:1054F0000AD0D90501EB1220530638BF704700F1DE
:10550000010008BF20F00100704700004FF47F0C3D
:105510001CEAD0121EBF1CEAD11392EA0C0F93EAC8
:105520000C0F00F0478090EA010F48BF42F48072F0
:105530004FF0004C4CEA00204CEA012102EB030240
:10554000A0FB0113A2F50002002918BF43F00103DC
:105550005B0028BF4FEA330342EB22425FEA132C81
:105560004CEBC2502EBFBCEB436FB2F57C0F7047C3
:105570004FEA036CBCF1004F08BF20F00100B2F508
:105580007C0F38BF70470BD582F0FF0212F5803FC9
:10559000C8BF704700F1C040D8BF00F0004070475E
:1055A00000F5000C5FEA4C0C48BF7047B0F1C040FA
:1055B00000F073B890EA010F0CEAD11348BF42F42F
:1055C0008072624538BF634504D280EA010000F072
:1055D0000040704710B500F01AF800BF8900013E86
:1055E00000F007B800F009B85FEA410C5FEA1C6CF4
:1055F00008D080EA010000F050B85FEA400C5FEA92
:105600001C6CF6D14FF00040A0F5800070470EF101
:10561000020E2EF0030E5EF8044B244204D44FEA2F
:105620004102B2F17F4F11D84FEA4003B3F17F4FEF
:105630000CD80ED14FEAD07CB2F17F4F0CEB4C0C62
:105640000CF1020C08BF4CEBD17C04E04FF0080CCD
:1056500001E04FEAD17C0CEB4C0324FA03F404F094
:105660000704B4F1040C06D20EEB840CBDE8104024
:105670004CF0010C6047DFE80CF0070802024FF025
:105680000040A0F5800010BD0846420018BFD2F1CE
:10569000807288BF00F0004010BDFF2141EAD05069
:1056A000C005704780F0004090EA010F7FF5DDAD46
:1056B00081F0004100F007B890EA010F48BF81F087
:1056C00000413FF5D2AD421A04D882F00042A0EB6F
:1056D000020011444FEAD0524FF07F4C1CEA410FB8
:1056E000A2EBD15318BF9CEA026F4AD04FF0004C96
:1056F0004CEA00204CEA012121FA03FCB0EB0C0C2F
:105700000FD412F0FE0F36D05FEA4C001DD5001208
:1057100040EBC25038BF70471CF03F0F18BF7047B6
:105720000BE0A2F101025FEA1C2040EBC25038BF3F
:1057300070471CF07F0F18BF7047C3F120039940DA
:1057400014BF401E20F00100704780084FEA12236A
:1057500008BF7047B0FA80FCA2EB0C02CCF1280C19
:1057600060FA0CF093EA122F04BF00EBC2507047AE
:105770004FEAC3707047130A5FEADC1008BF704736
:10578000F6E79CEA026F04D010EA5C0F08BF002025
:10579000704710B5FFF73BFF40DFF63E81F0004059
:1057A0007047FBF706B80CF00F03092B08BF082061
:1057B00000F059800A2B0BD0082B18BF704708BF88
:1057C0001CF0400F0AD04FF000004FF0000170476E
:1057D0001CF0400F18BF4FF0004070471CF0100F36
:1057E00008D020F0704300F07F4242EAD3014FEA34
:1057F0004370704700F0604021F07F4242EA0002AF
:1058000001F07F4040EA727070474FF0FF0C4CF49B
:10581000E06C1CEA11531CBF9CEA030C9445C2BF08
:10582000DA4201EB02517047002B0DD0BCF1000FA2
:105830000FD0002A01F00041A4BF41F0E04141F047
:105840007F614FF00000704701F000414FF0000011
:10585000704750EA01334FF09B0C18BF4CF0806C3E
:105860007FF40AA970471CF4801F11D01CF4E02FAC
:1058700003D06FEACC31490070474FF04050EFF34E
:10588000008222F0704242EA000282F300887047F0
:105890004FF000007047000000000000000001020F
:1058A00003040607080900000000010203040000C9
:1058B00001000200010003000100020001000400D9
:1058C00001000200010003000100020001000500C8
:1058D00001000200010003000100020001000400B9
:1058E00001000200010003000100020001000600A7
:1058F0000100020001000300010002000100040099
:105900000100020001000300010002000100050087
:105910000100020001000300010002000100040078
:105920000100020001000300010002000100070065
:105930000100020001000300010002000100040058
:105940000100020001000300010002000100050047
:105950000100020001000300010002000100040038
:105960000100020001000300010002000100060026
:105970000100020001000300010002000100040018
:105980000100020001000300010002000100050007
:1059900001000200010003000100020001000400F8
:1059A00001000200010003000100020001000000EC
:1059B00004FA97999999D93FAF788E1DC571CC3F5C
:1059C0009FC678D0099AC33F935555555555E53F25
:1059D000599322942449D23FDE03CB966446C73FB5
:1059E00044523EDF12F1C23F000000000000000000
:1059F00002400000000000A0000000000540000080
:105A0000000000C8000000000C4000000000409CA6
:105A100000000000194000000020BCBE0000000093
:105A200034400000BFC91B8E00000004B5400000D8
:105A3000504BCFD06607E2CF010000006C41000060
:105A40003E8251AADFEEA73401000000D9420000D7
:105A5000DCB5A0E23A301F97FFFFFFFFB44500001E
:105A6000FD25A0C8E9A3C14FFFFFFFFFFF3F0000D6
:105A70000000008000000000FF3F000000000080E8
:105A8000000000005B55415254205461736B5D204F
:105A900052656164792C20636F6D6D616E64733A39
:105AA000205428E6B8A9E5BAA6292C204C28E5857B
:105AB00089E785A7292C205328E78AB6E680812923
:105AC0002C205228E5A48DE4BD8D290D0A0000008C
:105AD0000C5B000800000020A80000006C0100081A
